{
  "contractName": "Manager",
  "abi": [
    {
      "inputs": [
        {
          "internalType": "string",
          "name": "managerName",
          "type": "string"
        }
      ],
      "stateMutability": "nonpayable",
      "type": "constructor"
    },
    {
      "anonymous": false,
      "inputs": [
        {
          "indexed": false,
          "internalType": "uint256",
          "name": "amount",
          "type": "uint256"
        }
      ],
      "name": "FundsReceived",
      "type": "event"
    },
    {
      "anonymous": false,
      "inputs": [
        {
          "indexed": false,
          "internalType": "string",
          "name": "name",
          "type": "string"
        }
      ],
      "name": "ManagerName",
      "type": "event"
    },
    {
      "anonymous": false,
      "inputs": [
        {
          "indexed": false,
          "internalType": "uint256",
          "name": "newPrice",
          "type": "uint256"
        }
      ],
      "name": "NewTicketPrice",
      "type": "event"
    },
    {
      "anonymous": false,
      "inputs": [
        {
          "indexed": true,
          "internalType": "address",
          "name": "previousOwner",
          "type": "address"
        },
        {
          "indexed": true,
          "internalType": "address",
          "name": "newOwner",
          "type": "address"
        }
      ],
      "name": "OwnershipTransferred",
      "type": "event"
    },
    {
      "anonymous": false,
      "inputs": [
        {
          "indexed": false,
          "internalType": "uint256",
          "name": "",
          "type": "uint256"
        }
      ],
      "name": "ShowComission",
      "type": "event"
    },
    {
      "anonymous": false,
      "inputs": [
        {
          "indexed": false,
          "internalType": "uint256",
          "name": "",
          "type": "uint256"
        }
      ],
      "name": "TicketCount",
      "type": "event"
    },
    {
      "anonymous": false,
      "inputs": [
        {
          "indexed": false,
          "internalType": "string",
          "name": "eventName",
          "type": "string"
        },
        {
          "indexed": false,
          "internalType": "uint256",
          "name": "price",
          "type": "uint256"
        },
        {
          "indexed": false,
          "internalType": "address",
          "name": "owner",
          "type": "address"
        }
      ],
      "name": "TicketCreated",
      "type": "event"
    },
    {
      "anonymous": false,
      "inputs": [
        {
          "indexed": false,
          "internalType": "uint256",
          "name": "",
          "type": "uint256"
        }
      ],
      "name": "TicketDeleted",
      "type": "event"
    },
    {
      "anonymous": false,
      "inputs": [
        {
          "indexed": false,
          "internalType": "uint256",
          "name": "ticketPrice",
          "type": "uint256"
        },
        {
          "indexed": false,
          "internalType": "address",
          "name": "newOner",
          "type": "address"
        }
      ],
      "name": "TicketTransfered",
      "type": "event"
    },
    {
      "anonymous": false,
      "inputs": [
        {
          "indexed": false,
          "internalType": "uint256",
          "name": "",
          "type": "uint256"
        },
        {
          "indexed": false,
          "internalType": "uint256",
          "name": "",
          "type": "uint256"
        }
      ],
      "name": "ViewStatistics",
      "type": "event"
    },
    {
      "stateMutability": "payable",
      "type": "fallback",
      "payable": true
    },
    {
      "inputs": [],
      "name": "MANAGER",
      "outputs": [
        {
          "internalType": "address",
          "name": "",
          "type": "address"
        }
      ],
      "stateMutability": "view",
      "type": "function",
      "constant": true
    },
    {
      "inputs": [],
      "name": "owner",
      "outputs": [
        {
          "internalType": "address",
          "name": "",
          "type": "address"
        }
      ],
      "stateMutability": "view",
      "type": "function",
      "constant": true
    },
    {
      "inputs": [],
      "name": "renounceOwnership",
      "outputs": [],
      "stateMutability": "nonpayable",
      "type": "function"
    },
    {
      "inputs": [
        {
          "internalType": "address",
          "name": "newOwner",
          "type": "address"
        }
      ],
      "name": "transferOwnership",
      "outputs": [],
      "stateMutability": "nonpayable",
      "type": "function"
    },
    {
      "stateMutability": "payable",
      "type": "receive",
      "payable": true
    },
    {
      "inputs": [],
      "name": "getManagerName",
      "outputs": [],
      "stateMutability": "nonpayable",
      "type": "function"
    },
    {
      "inputs": [
        {
          "internalType": "string",
          "name": "_eventName",
          "type": "string"
        },
        {
          "internalType": "string",
          "name": "_eventDate",
          "type": "string"
        },
        {
          "internalType": "string",
          "name": "_eventDescription",
          "type": "string"
        },
        {
          "internalType": "enum EventType",
          "name": "_eventType",
          "type": "uint8"
        },
        {
          "internalType": "enum TicketStatus",
          "name": "_ticketStatus",
          "type": "uint8"
        },
        {
          "internalType": "enum TransferStatus",
          "name": "_transferStatus",
          "type": "uint8"
        },
        {
          "internalType": "uint256",
          "name": "_price",
          "type": "uint256"
        },
        {
          "internalType": "address",
          "name": "",
          "type": "address"
        }
      ],
      "name": "createTicket",
      "outputs": [],
      "stateMutability": "payable",
      "type": "function",
      "payable": true
    },
    {
      "inputs": [],
      "name": "totalTickets",
      "outputs": [
        {
          "internalType": "uint256",
          "name": "total",
          "type": "uint256"
        }
      ],
      "stateMutability": "nonpayable",
      "type": "function"
    },
    {
      "inputs": [],
      "name": "getTickets",
      "outputs": [
        {
          "internalType": "contract Ticket[]",
          "name": "",
          "type": "address[]"
        }
      ],
      "stateMutability": "view",
      "type": "function",
      "constant": true
    },
    {
      "inputs": [
        {
          "internalType": "uint256",
          "name": "index",
          "type": "uint256"
        }
      ],
      "name": "showTicketAddr",
      "outputs": [
        {
          "internalType": "contract Ticket",
          "name": "",
          "type": "address"
        }
      ],
      "stateMutability": "view",
      "type": "function",
      "constant": true
    },
    {
      "inputs": [
        {
          "internalType": "uint256",
          "name": "index",
          "type": "uint256"
        }
      ],
      "name": "showAllTickets",
      "outputs": [
        {
          "internalType": "address",
          "name": "ticketAddr",
          "type": "address"
        },
        {
          "internalType": "uint256",
          "name": "ticketId",
          "type": "uint256"
        },
        {
          "internalType": "string",
          "name": "eventName",
          "type": "string"
        },
        {
          "internalType": "string",
          "name": "eventDate",
          "type": "string"
        },
        {
          "internalType": "string",
          "name": "eventDescription",
          "type": "string"
        },
        {
          "internalType": "enum EventType",
          "name": "eventType",
          "type": "uint8"
        },
        {
          "internalType": "enum TicketStatus",
          "name": "ticketStatus",
          "type": "uint8"
        },
        {
          "internalType": "uint256",
          "name": "ticketPrice",
          "type": "uint256"
        },
        {
          "internalType": "address",
          "name": "owner",
          "type": "address"
        }
      ],
      "stateMutability": "view",
      "type": "function",
      "constant": true
    },
    {
      "inputs": [
        {
          "internalType": "address",
          "name": "_ticketAddr",
          "type": "address"
        }
      ],
      "name": "showTicketsByAddress",
      "outputs": [
        {
          "internalType": "address",
          "name": "ticketAddr",
          "type": "address"
        },
        {
          "internalType": "uint256",
          "name": "ticketId",
          "type": "uint256"
        },
        {
          "internalType": "string",
          "name": "eventName",
          "type": "string"
        },
        {
          "internalType": "string",
          "name": "eventDate",
          "type": "string"
        },
        {
          "internalType": "string",
          "name": "eventDescription",
          "type": "string"
        },
        {
          "internalType": "enum EventType",
          "name": "eventType",
          "type": "uint8"
        },
        {
          "internalType": "enum TicketStatus",
          "name": "ticketStatus",
          "type": "uint8"
        },
        {
          "internalType": "uint256",
          "name": "ticketPrice",
          "type": "uint256"
        },
        {
          "internalType": "address",
          "name": "owner",
          "type": "address"
        }
      ],
      "stateMutability": "view",
      "type": "function",
      "constant": true
    },
    {
      "inputs": [
        {
          "internalType": "uint256",
          "name": "index",
          "type": "uint256"
        },
        {
          "internalType": "address",
          "name": "newOwner",
          "type": "address"
        }
      ],
      "name": "transferTicket",
      "outputs": [],
      "stateMutability": "payable",
      "type": "function",
      "payable": true
    },
    {
      "inputs": [
        {
          "internalType": "uint256",
          "name": "ticketPrice",
          "type": "uint256"
        }
      ],
      "name": "getFee",
      "outputs": [
        {
          "internalType": "uint256",
          "name": "",
          "type": "uint256"
        }
      ],
      "stateMutability": "view",
      "type": "function",
      "constant": true
    },
    {
      "inputs": [
        {
          "internalType": "address",
          "name": "ticketAddr",
          "type": "address"
        },
        {
          "internalType": "uint256",
          "name": "newPrice",
          "type": "uint256"
        }
      ],
      "name": "changeTicketPrice",
      "outputs": [],
      "stateMutability": "payable",
      "type": "function",
      "payable": true
    },
    {
      "inputs": [],
      "name": "showStatistics",
      "outputs": [
        {
          "internalType": "uint256",
          "name": "allTickets",
          "type": "uint256"
        },
        {
          "internalType": "uint256",
          "name": "allFunds",
          "type": "uint256"
        }
      ],
      "stateMutability": "nonpayable",
      "type": "function"
    },
    {
      "inputs": [
        {
          "internalType": "uint256",
          "name": "ticketIndex",
          "type": "uint256"
        }
      ],
      "name": "deleteTicket",
      "outputs": [],
      "stateMutability": "nonpayable",
      "type": "function"
    }
  ],
  "bytecode": "0x60a060405260056003553480156200001657600080fd5b50604051620045cc380380620045cc83398181016040528101906200003c919062000308565b6200005c62000050620000a960201b60201c565b620000b160201b60201c565b3373ffffffffffffffffffffffffffffffffffffffff1660808173ffffffffffffffffffffffffffffffffffffffff16815250508060069081620000a19190620005a4565b50506200068b565b600033905090565b60008060009054906101000a900473ffffffffffffffffffffffffffffffffffffffff169050816000806101000a81548173ffffffffffffffffffffffffffffffffffffffff021916908373ffffffffffffffffffffffffffffffffffffffff1602179055508173ffffffffffffffffffffffffffffffffffffffff168173ffffffffffffffffffffffffffffffffffffffff167f8be0079c531659141344cd1fd0a4f28419497f9722a3daafe3b4186f6b6457e060405160405180910390a35050565b6000604051905090565b600080fd5b600080fd5b600080fd5b600080fd5b6000601f19601f8301169050919050565b7f4e487b7100000000000000000000000000000000000000000000000000000000600052604160045260246000fd5b620001de8262000193565b810181811067ffffffffffffffff821117156200020057620001ff620001a4565b5b80604052505050565b60006200021562000175565b9050620002238282620001d3565b919050565b600067ffffffffffffffff821115620002465762000245620001a4565b5b620002518262000193565b9050602081019050919050565b60005b838110156200027e57808201518184015260208101905062000261565b60008484015250505050565b6000620002a16200029b8462000228565b62000209565b905082815260208101848484011115620002c057620002bf6200018e565b5b620002cd8482856200025e565b509392505050565b600082601f830112620002ed57620002ec62000189565b5b8151620002ff8482602086016200028a565b91505092915050565b6000602082840312156200032157620003206200017f565b5b600082015167ffffffffffffffff81111562000342576200034162000184565b5b6200035084828501620002d5565b91505092915050565b600081519050919050565b7f4e487b7100000000000000000000000000000000000000000000000000000000600052602260045260246000fd5b60006002820490506001821680620003ac57607f821691505b602082108103620003c257620003c162000364565b5b50919050565b60008190508160005260206000209050919050565b60006020601f8301049050919050565b600082821b905092915050565b6000600883026200042c7fffffffffffffffffffffffffffffffffffffffffffffffffffffffffffffffff82620003ed565b620004388683620003ed565b95508019841693508086168417925050509392505050565b6000819050919050565b6000819050919050565b6000620004856200047f620004798462000450565b6200045a565b62000450565b9050919050565b6000819050919050565b620004a18362000464565b620004b9620004b0826200048c565b848454620003fa565b825550505050565b600090565b620004d0620004c1565b620004dd81848462000496565b505050565b5b818110156200050557620004f9600082620004c6565b600181019050620004e3565b5050565b601f82111562000554576200051e81620003c8565b6200052984620003dd565b8101602085101562000539578190505b620005516200054885620003dd565b830182620004e2565b50505b505050565b600082821c905092915050565b6000620005796000198460080262000559565b1980831691505092915050565b600062000594838362000566565b9150826002028217905092915050565b620005af8262000359565b67ffffffffffffffff811115620005cb57620005ca620001a4565b5b620005d7825462000393565b620005e482828562000509565b600060209050601f8311600181146200061c576000841562000607578287015190505b62000613858262000586565b86555062000683565b601f1984166200062c86620003c8565b60005b8281101562000656578489015182556001820191506020850194506020810190506200062f565b8683101562000676578489015162000672601f89168262000566565b8355505b6001600288020188555050505b505050505050565b608051613f25620006a760003960006106640152613f256000f3fe6080604052600436106200010f5760003560e01c8063715018a61162000097578063d0c451c01162000061578063d0c451c0146200039e578063dd11247e14620003ea578063f2fde38b146200041a578063fcee45f414620004485762000150565b8063715018a614620002d75780638da5cb5b14620002f1578063906802431462000321578063af0432db14620003525762000150565b8063374ad65511620000d9578063374ad65514620002395780634ed0262214620002595780635a93fb2d1462000289578063679ebf1a14620002b75762000150565b8063040d0714146200018b57806309208f2914620001cf5780631b2df85014620001ef57806333fc093e146200021f5762000150565b3662000150577fbcdc7071c1beb6dcf2744621e0b29a2f2432ee20812d9ca5e3d5e8f9308d93a3346040516200014691906200139b565b60405180910390a1005b7fbcdc7071c1beb6dcf2744621e0b29a2f2432ee20812d9ca5e3d5e8f9308d93a3346040516200018191906200139b565b60405180910390a1005b3480156200019857600080fd5b50620001b76004803603810190620001b19190620013fd565b6200048c565b604051620001c69190620014ba565b60405180910390f35b620001ed6004803603810190620001e79190620016f6565b620004d7565b005b348015620001fc57600080fd5b506200020762000662565b6040516200021691906200182d565b60405180910390f35b3480156200022c57600080fd5b506200023762000686565b005b6200025760048036038101906200025191906200184a565b620006c2565b005b3480156200026657600080fd5b506200027162000803565b6040516200028091906200195f565b60405180910390f35b3480156200029657600080fd5b50620002b56004803603810190620002af9190620013fd565b62000893565b005b620002d56004803603810190620002cf919062001983565b62000a65565b005b348015620002e457600080fd5b50620002ef62000f04565b005b348015620002fe57600080fd5b506200030962000f1c565b6040516200031891906200182d565b60405180910390f35b3480156200032e57600080fd5b506200033962000f45565b60405162000349929190620019ca565b60405180910390f35b3480156200035f57600080fd5b506200037e6004803603810190620003789190620013fd565b62000fa1565b604051620003959998979695949392919062001b51565b60405180910390f35b348015620003ab57600080fd5b50620003ca6004803603810190620003c4919062001c05565b62001086565b604051620003e19998979695949392919062001b51565b60405180910390f35b348015620003f757600080fd5b50620004026200112a565b6040516200041191906200139b565b60405180910390f35b3480156200042757600080fd5b5062000446600480360381019062000440919062001c05565b62001170565b005b3480156200045557600080fd5b506200047460048036038101906200046e9190620013fd565b620011fa565b6040516200048391906200139b565b60405180910390f35b600060018281548110620004a557620004a462001c37565b5b9060005260206000200160009054906101000a900473ffffffffffffffffffffffffffffffffffffffff169050919050565b60008888888888888833604051620004ef9062001372565b6200050298979695949392919062001cb7565b604051809103906000f0801580156200051f573d6000803e3d6000fd5b5090506002339080600181540180825580915050600190039060005260206000200160009091909190916101000a81548173ffffffffffffffffffffffffffffffffffffffff021916908373ffffffffffffffffffffffffffffffffffffffff1602179055506001819080600181540180825580915050600190039060005260206000200160009091909190916101000a81548173ffffffffffffffffffffffffffffffffffffffff021916908373ffffffffffffffffffffffffffffffffffffffff160217905550600160046000828254620005fd919062001d89565b925050819055508260055462000614919062001d89565b6005819055507ff4499f80e26787c6d35cdeab0e04f1e48cf6d2d16c5675c4cdd1f8eec5770b6b8984336040516200064f9392919062001dc4565b60405180910390a1505050505050505050565b7f000000000000000000000000000000000000000000000000000000000000000081565b7f75ee71a0cf516d6f68d7788eed1fd8eab622cec8eb0d0f14d605e584bf8759fe6006604051620006b8919062001f11565b60405180910390a1565b60008290506000620006d483620011fa565b9050803410156200071c576040517f08c379a0000000000000000000000000000000000000000000000000000000008152600401620007139062001fab565b60405180910390fd5b8173ffffffffffffffffffffffffffffffffffffffff1663a2b40d19846040518263ffffffff1660e01b81526004016200075791906200139b565b600060405180830381600087803b1580156200077257600080fd5b505af115801562000787573d6000803e3d6000fd5b505050507fcc22794783b5386583c8f5afc561c77f87a06f91f6fa4366b2fcca10a2b9be1d83604051620007bc91906200139b565b60405180910390a17fc8b87213b51acc142af10461772ce98d31f2336c925e51defb71815a8a8b5ce434604051620007f591906200139b565b60405180910390a150505050565b606060018054806020026020016040519081016040528092919081815260200182805480156200088957602002820191906000526020600020905b8160009054906101000a900473ffffffffffffffffffffffffffffffffffffffff1673ffffffffffffffffffffffffffffffffffffffff16815260200190600101908083116200083e575b5050505050905090565b6001805490508110620008dd576040517f08c379a0000000000000000000000000000000000000000000000000000000008152600401620008d4906200201d565b60405180910390fd5b60008190505b60018080549050620008f691906200203f565b811015620009c257600180826200090e919062001d89565b8154811062000922576200092162001c37565b5b9060005260206000200160009054906101000a900473ffffffffffffffffffffffffffffffffffffffff166001828154811062000964576200096362001c37565b5b9060005260206000200160006101000a81548173ffffffffffffffffffffffffffffffffffffffff021916908373ffffffffffffffffffffffffffffffffffffffff1602179055508080620009b9906200207a565b915050620008e3565b506001805480620009d857620009d7620020c7565b5b6001900381819060005260206000200160006101000a81549073ffffffffffffffffffffffffffffffffffffffff0219169055905560016004600082825462000a2291906200203f565b925050819055507f199e5a3d019c3fed67021a47a1efa7f9aa4ff90bac183094d632d885c15f54188160405162000a5a91906200139b565b60405180910390a150565b6000600181111562000a7c5762000a7b62001a80565b5b6001838154811062000a935762000a9262001c37565b5b9060005260206000200160009054906101000a900473ffffffffffffffffffffffffffffffffffffffff1673ffffffffffffffffffffffffffffffffffffffff16631a6fb3426040518163ffffffff1660e01b8152600401602060405180830381865afa15801562000b09573d6000803e3d6000fd5b505050506040513d601f19601f8201168201806040525081019062000b2f91906200210d565b600181111562000b445762000b4362001a80565b5b1462000b87576040517f08c379a000000000000000000000000000000000000000000000000000000000815260040162000b7e906200218f565b60405180910390fd5b6000600281111562000b9e5762000b9d62001a80565b5b6001838154811062000bb55762000bb462001c37565b5b9060005260206000200160009054906101000a900473ffffffffffffffffffffffffffffffffffffffff1673ffffffffffffffffffffffffffffffffffffffff16633bc21fcb6040518163ffffffff1660e01b8152600401602060405180830381865afa15801562000c2b573d6000803e3d6000fd5b505050506040513d601f19601f8201168201806040525081019062000c519190620021c8565b600281111562000c665762000c6562001a80565b5b1462000ca9576040517f08c379a000000000000000000000000000000000000000000000000000000000815260040162000ca0906200224a565b60405180910390fd5b60006001838154811062000cc25762000cc162001c37565b5b9060005260206000200160009054906101000a900473ffffffffffffffffffffffffffffffffffffffff1673ffffffffffffffffffffffffffffffffffffffff1663893d20e86040518163ffffffff1660e01b8152600401602060405180830381865afa15801562000d38573d6000803e3d6000fd5b505050506040513d601f19601f8201168201806040525081019062000d5e919062002283565b905060008173ffffffffffffffffffffffffffffffffffffffff163460405162000d8890620022ea565b60006040518083038185875af1925050503d806000811462000dc7576040519150601f19603f3d011682016040523d82523d6000602084013e62000dcc565b606091505b505090508062000e13576040517f08c379a000000000000000000000000000000000000000000000000000000000815260040162000e0a9062002351565b60405180910390fd5b6001848154811062000e2a5762000e2962001c37565b5b9060005260206000200160009054906101000a900473ffffffffffffffffffffffffffffffffffffffff1673ffffffffffffffffffffffffffffffffffffffff1663a6f9dae1846040518263ffffffff1660e01b815260040162000e8f91906200182d565b600060405180830381600087803b15801562000eaa57600080fd5b505af115801562000ebf573d6000803e3d6000fd5b505050507f352cf8d772e1d1127d80b6e0f3dcb59bc734d977197f6fc40613b8f947804e4b348460405162000ef692919062002373565b60405180910390a150505050565b62000f0e62001221565b62000f1a6000620012a6565b565b60008060009054906101000a900473ffffffffffffffffffffffffffffffffffffffff16905090565b60008060006004549050600060055490507fb8ddb72816f90de604cf4307a442327ebab32f3bd496c6737752280c0721f024828260405162000f89929190620019ca565b60405180910390a16004546005549350935050509091565b600080606080606060008060008060018a8154811062000fc65762000fc562001c37565b5b9060005260206000200160009054906101000a900473ffffffffffffffffffffffffffffffffffffffff1673ffffffffffffffffffffffffffffffffffffffff1663f15358946040518163ffffffff1660e01b8152600401600060405180830381865afa1580156200103c573d6000803e3d6000fd5b505050506040513d6000823e3d601f19601f820116820180604052508101906200106791906200244c565b9850985098509850985098509850985098509193959799909294969850565b60008060608060606000806000808973ffffffffffffffffffffffffffffffffffffffff1663f15358946040518163ffffffff1660e01b8152600401600060405180830381865afa158015620010e0573d6000803e3d6000fd5b505050506040513d6000823e3d601f19601f820116820180604052508101906200110b91906200244c565b9850985098509850985098509850985098509193959799909294969850565b60007f8cccf60b5428f9d7a29d507b2fc50eb53376c17e444b441391002cf158111496816040516200115d91906200139b565b60405180910390a1600180549050905090565b6200117a62001221565b600073ffffffffffffffffffffffffffffffffffffffff168173ffffffffffffffffffffffffffffffffffffffff1603620011ec576040517f08c379a0000000000000000000000000000000000000000000000000000000008152600401620011e390620025fe565b60405180910390fd5b620011f781620012a6565b50565b60006064600354836200120e919062002620565b6200121a91906200269a565b9050919050565b6200122b6200136a565b73ffffffffffffffffffffffffffffffffffffffff166200124b62000f1c565b73ffffffffffffffffffffffffffffffffffffffff1614620012a4576040517f08c379a00000000000000000000000000000000000000000000000000000000081526004016200129b9062002722565b60405180910390fd5b565b60008060009054906101000a900473ffffffffffffffffffffffffffffffffffffffff169050816000806101000a81548173ffffffffffffffffffffffffffffffffffffffff021916908373ffffffffffffffffffffffffffffffffffffffff1602179055508173ffffffffffffffffffffffffffffffffffffffff168173ffffffffffffffffffffffffffffffffffffffff167f8be0079c531659141344cd1fd0a4f28419497f9722a3daafe3b4186f6b6457e060405160405180910390a35050565b600033905090565b6117ab806200274583390190565b6000819050919050565b620013958162001380565b82525050565b6000602082019050620013b260008301846200138a565b92915050565b6000604051905090565b600080fd5b600080fd5b620013d78162001380565b8114620013e357600080fd5b50565b600081359050620013f781620013cc565b92915050565b600060208284031215620014165762001415620013c2565b5b60006200142684828501620013e6565b91505092915050565b600073ffffffffffffffffffffffffffffffffffffffff82169050919050565b6000819050919050565b60006200147a620014746200146e846200142f565b6200144f565b6200142f565b9050919050565b60006200148e8262001459565b9050919050565b6000620014a28262001481565b9050919050565b620014b48162001495565b82525050565b6000602082019050620014d16000830184620014a9565b92915050565b600080fd5b600080fd5b6000601f19601f8301169050919050565b7f4e487b7100000000000000000000000000000000000000000000000000000000600052604160045260246000fd5b6200152c82620014e1565b810181811067ffffffffffffffff821117156200154e576200154d620014f2565b5b80604052505050565b600062001563620013b8565b905062001571828262001521565b919050565b600067ffffffffffffffff821115620015945762001593620014f2565b5b6200159f82620014e1565b9050602081019050919050565b82818337600083830152505050565b6000620015d2620015cc8462001576565b62001557565b905082815260208101848484011115620015f157620015f0620014dc565b5b620015fe848285620015ac565b509392505050565b600082601f8301126200161e576200161d620014d7565b5b813562001630848260208601620015bb565b91505092915050565b600381106200164757600080fd5b50565b6000813590506200165b8162001639565b92915050565b600381106200166f57600080fd5b50565b600081359050620016838162001661565b92915050565b600281106200169757600080fd5b50565b600081359050620016ab8162001689565b92915050565b6000620016be826200142f565b9050919050565b620016d081620016b1565b8114620016dc57600080fd5b50565b600081359050620016f081620016c5565b92915050565b600080600080600080600080610100898b0312156200171a5762001719620013c2565b5b600089013567ffffffffffffffff8111156200173b576200173a620013c7565b5b620017498b828c0162001606565b985050602089013567ffffffffffffffff8111156200176d576200176c620013c7565b5b6200177b8b828c0162001606565b975050604089013567ffffffffffffffff8111156200179f576200179e620013c7565b5b620017ad8b828c0162001606565b9650506060620017c08b828c016200164a565b9550506080620017d38b828c0162001672565b94505060a0620017e68b828c016200169a565b93505060c0620017f98b828c01620013e6565b92505060e06200180c8b828c01620016df565b9150509295985092959890939650565b6200182781620016b1565b82525050565b60006020820190506200184460008301846200181c565b92915050565b60008060408385031215620018645762001863620013c2565b5b60006200187485828601620016df565b92505060206200188785828601620013e6565b9150509250929050565b600081519050919050565b600082825260208201905092915050565b6000819050602082019050919050565b620018c88162001495565b82525050565b6000620018dc8383620018bd565b60208301905092915050565b6000602082019050919050565b6000620019028262001891565b6200190e81856200189c565b93506200191b83620018ad565b8060005b8381101562001952578151620019368882620018ce565b97506200194383620018e8565b9250506001810190506200191f565b5085935050505092915050565b600060208201905081810360008301526200197b8184620018f5565b905092915050565b600080604083850312156200199d576200199c620013c2565b5b6000620019ad85828601620013e6565b9250506020620019c085828601620016df565b9150509250929050565b6000604082019050620019e160008301856200138a565b620019f060208301846200138a565b9392505050565b600081519050919050565b600082825260208201905092915050565b60005b8381101562001a3357808201518184015260208101905062001a16565b60008484015250505050565b600062001a4c82620019f7565b62001a58818562001a02565b935062001a6a81856020860162001a13565b62001a7581620014e1565b840191505092915050565b7f4e487b7100000000000000000000000000000000000000000000000000000000600052602160045260246000fd5b6003811062001ac35762001ac262001a80565b5b50565b600081905062001ad68262001aaf565b919050565b600062001ae88262001ac6565b9050919050565b62001afa8162001adb565b82525050565b6003811062001b145762001b1362001a80565b5b50565b600081905062001b278262001b00565b919050565b600062001b398262001b17565b9050919050565b62001b4b8162001b2c565b82525050565b60006101208201905062001b69600083018c6200181c565b62001b78602083018b6200138a565b818103604083015262001b8c818a62001a3f565b9050818103606083015262001ba2818962001a3f565b9050818103608083015262001bb8818862001a3f565b905062001bc960a083018762001aef565b62001bd860c083018662001b40565b62001be760e08301856200138a565b62001bf76101008301846200181c565b9a9950505050505050505050565b60006020828403121562001c1e5762001c1d620013c2565b5b600062001c2e84828501620016df565b91505092915050565b7f4e487b7100000000000000000000000000000000000000000000000000000000600052603260045260246000fd5b6002811062001c7a5762001c7962001a80565b5b50565b600081905062001c8d8262001c66565b919050565b600062001c9f8262001c7d565b9050919050565b62001cb18162001c92565b82525050565b600061010082019050818103600083015262001cd4818b62001a3f565b9050818103602083015262001cea818a62001a3f565b9050818103604083015262001d00818962001a3f565b905062001d11606083018862001aef565b62001d20608083018762001b40565b62001d2f60a083018662001ca6565b62001d3e60c08301856200138a565b62001d4d60e08301846200181c565b9998505050505050505050565b7f4e487b7100000000000000000000000000000000000000000000000000000000600052601160045260246000fd5b600062001d968262001380565b915062001da38362001380565b925082820190508082111562001dbe5762001dbd62001d5a565b5b92915050565b6000606082019050818103600083015262001de0818662001a3f565b905062001df160208301856200138a565b62001e0060408301846200181c565b949350505050565b7f4e487b7100000000000000000000000000000000000000000000000000000000600052602260045260246000fd5b6000600282049050600182168062001e5057607f821691505b60208210810362001e665762001e6562001e08565b5b50919050565b60008190508160005260206000209050919050565b6000815462001e908162001e37565b62001e9c818662001a02565b9450600182166000811462001eba576001811462001ed15762001f08565b60ff19831686528115156020028601935062001f08565b62001edc8562001e6c565b60005b8381101562001f005781548189015260018201915060208101905062001edf565b808801955050505b50505092915050565b6000602082019050818103600083015262001f2d818462001e81565b905092915050565b7f4665652072656365697665642069736e277420656e6f7567682e2053656e642060008201527f746865203525206f66206e657720707269636500000000000000000000000000602082015250565b600062001f9360338362001a02565b915062001fa08262001f35565b604082019050919050565b6000602082019050818103600083015262001fc68162001f84565b9050919050565b7f496e646578206e6f7420666f756e640000000000000000000000000000000000600082015250565b600062002005600f8362001a02565b9150620020128262001fcd565b602082019050919050565b60006020820190508181036000830152620020388162001ff6565b9050919050565b60006200204c8262001380565b9150620020598362001380565b925082820390508181111562002074576200207362001d5a565b5b92915050565b6000620020878262001380565b91507fffffffffffffffffffffffffffffffffffffffffffffffffffffffffffffffff8203620020bc57620020bb62001d5a565b5b600182019050919050565b7f4e487b7100000000000000000000000000000000000000000000000000000000600052603160045260246000fd5b600081519050620021078162001689565b92915050565b600060208284031215620021265762002125620013c2565b5b60006200213684828501620020f6565b91505092915050565b7f54686973207469636b65742069736e2774207472616e7366657269626c650000600082015250565b600062002177601e8362001a02565b915062002184826200213f565b602082019050919050565b60006020820190508181036000830152620021aa8162002168565b9050919050565b600081519050620021c28162001661565b92915050565b600060208284031215620021e157620021e0620013c2565b5b6000620021f184828501620021b1565b91505092915050565b7f54686973207469636b65742069736e27742076616c6964000000000000000000600082015250565b60006200223260178362001a02565b91506200223f82620021fa565b602082019050919050565b60006020820190508181036000830152620022658162002223565b9050919050565b6000815190506200227d81620016c5565b92915050565b6000602082840312156200229c576200229b620013c2565b5b6000620022ac848285016200226c565b91505092915050565b600081905092915050565b50565b6000620022d2600083620022b5565b9150620022df82620022c0565b600082019050919050565b6000620022f782620022c3565b9150819050919050565b7f4572726f7220746f207472616e73666572207469636b65740000000000000000600082015250565b60006200233960188362001a02565b9150620023468262002301565b602082019050919050565b600060208201905081810360008301526200236c816200232a565b9050919050565b60006040820190506200238a60008301856200138a565b6200239960208301846200181c565b9392505050565b600081519050620023b181620013cc565b92915050565b6000620023ce620023c88462001576565b62001557565b905082815260208101848484011115620023ed57620023ec620014dc565b5b620023fa84828562001a13565b509392505050565b600082601f8301126200241a5762002419620014d7565b5b81516200242c848260208601620023b7565b91505092915050565b600081519050620024468162001639565b92915050565b60008060008060008060008060006101208a8c031215620024725762002471620013c2565b5b6000620024828c828d016200226c565b9950506020620024958c828d01620023a0565b98505060408a015167ffffffffffffffff811115620024b957620024b8620013c7565b5b620024c78c828d0162002402565b97505060608a015167ffffffffffffffff811115620024eb57620024ea620013c7565b5b620024f98c828d0162002402565b96505060808a015167ffffffffffffffff8111156200251d576200251c620013c7565b5b6200252b8c828d0162002402565b95505060a06200253e8c828d0162002435565b94505060c0620025518c828d01620021b1565b93505060e0620025648c828d01620023a0565b925050610100620025788c828d016200226c565b9150509295985092959850929598565b7f4f776e61626c653a206e6577206f776e657220697320746865207a65726f206160008201527f6464726573730000000000000000000000000000000000000000000000000000602082015250565b6000620025e660268362001a02565b9150620025f38262002588565b604082019050919050565b600060208201905081810360008301526200261981620025d7565b9050919050565b60006200262d8262001380565b91506200263a8362001380565b92508282026200264a8162001380565b9150828204841483151762002664576200266362001d5a565b5b5092915050565b7f4e487b7100000000000000000000000000000000000000000000000000000000600052601260045260246000fd5b6000620026a78262001380565b9150620026b48362001380565b925082620026c757620026c66200266b565b5b828204905092915050565b7f4f776e61626c653a2063616c6c6572206973206e6f7420746865206f776e6572600082015250565b60006200270a60208362001a02565b91506200271782620026d2565b602082019050919050565b600060208201905081810360008301526200273d81620026fb565b905091905056fe60806040523480156200001157600080fd5b50604051620017ab380380620017ab833981810160405281019062000037919062000456565b620000476200016060201b60201c565b60008190555087600190816200005e9190620007bd565b508660029081620000709190620007bd565b508560039081620000829190620007bd565b5084600460006101000a81548160ff02191690836002811115620000ab57620000aa620008a4565b5b021790555083600460016101000a81548160ff02191690836002811115620000d857620000d7620008a4565b5b021790555082600460026101000a81548160ff02191690836001811115620001055762000104620008a4565b5b02179055508160058190555080600660006101000a81548173ffffffffffffffffffffffffffffffffffffffff021916908373ffffffffffffffffffffffffffffffffffffffff1602179055505050505050505050620009df565b6000806305f5e10033426040516020016200017d92919062000948565b6040516020818303038152906040528051906020012060001c620001a29190620009a7565b90508091505090565b6000604051905090565b600080fd5b600080fd5b600080fd5b600080fd5b6000601f19601f8301169050919050565b7f4e487b7100000000000000000000000000000000000000000000000000000000600052604160045260246000fd5b6200021482620001c9565b810181811067ffffffffffffffff82111715620002365762000235620001da565b5b80604052505050565b60006200024b620001ab565b905062000259828262000209565b919050565b600067ffffffffffffffff8211156200027c576200027b620001da565b5b6200028782620001c9565b9050602081019050919050565b60005b83811015620002b457808201518184015260208101905062000297565b60008484015250505050565b6000620002d7620002d1846200025e565b6200023f565b905082815260208101848484011115620002f657620002f5620001c4565b5b6200030384828562000294565b509392505050565b600082601f830112620003235762000322620001bf565b5b815162000335848260208601620002c0565b91505092915050565b600381106200034c57600080fd5b50565b60008151905062000360816200033e565b92915050565b600381106200037457600080fd5b50565b600081519050620003888162000366565b92915050565b600281106200039c57600080fd5b50565b600081519050620003b0816200038e565b92915050565b6000819050919050565b620003cb81620003b6565b8114620003d757600080fd5b50565b600081519050620003eb81620003c0565b92915050565b600073ffffffffffffffffffffffffffffffffffffffff82169050919050565b60006200041e82620003f1565b9050919050565b620004308162000411565b81146200043c57600080fd5b50565b600081519050620004508162000425565b92915050565b600080600080600080600080610100898b0312156200047a5762000479620001b5565b5b600089015167ffffffffffffffff8111156200049b576200049a620001ba565b5b620004a98b828c016200030b565b985050602089015167ffffffffffffffff811115620004cd57620004cc620001ba565b5b620004db8b828c016200030b565b975050604089015167ffffffffffffffff811115620004ff57620004fe620001ba565b5b6200050d8b828c016200030b565b9650506060620005208b828c016200034f565b9550506080620005338b828c0162000377565b94505060a0620005468b828c016200039f565b93505060c0620005598b828c01620003da565b92505060e06200056c8b828c016200043f565b9150509295985092959890939650565b600081519050919050565b7f4e487b7100000000000000000000000000000000000000000000000000000000600052602260045260246000fd5b60006002820490506001821680620005cf57607f821691505b602082108103620005e557620005e462000587565b5b50919050565b60008190508160005260206000209050919050565b60006020601f8301049050919050565b600082821b905092915050565b6000600883026200064f7fffffffffffffffffffffffffffffffffffffffffffffffffffffffffffffffff8262000610565b6200065b868362000610565b95508019841693508086168417925050509392505050565b6000819050919050565b60006200069e620006986200069284620003b6565b62000673565b620003b6565b9050919050565b6000819050919050565b620006ba836200067d565b620006d2620006c982620006a5565b8484546200061d565b825550505050565b600090565b620006e9620006da565b620006f6818484620006af565b505050565b5b818110156200071e5762000712600082620006df565b600181019050620006fc565b5050565b601f8211156200076d576200073781620005eb565b620007428462000600565b8101602085101562000752578190505b6200076a620007618562000600565b830182620006fb565b50505b505050565b600082821c905092915050565b6000620007926000198460080262000772565b1980831691505092915050565b6000620007ad83836200077f565b9150826002028217905092915050565b620007c8826200057c565b67ffffffffffffffff811115620007e457620007e3620001da565b5b620007f08254620005b6565b620007fd82828562000722565b600060209050601f83116001811462000835576000841562000820578287015190505b6200082c85826200079f565b8655506200089c565b601f1984166200084586620005eb565b60005b828110156200086f5784890151825560018201915060208501945060208101905062000848565b868310156200088f57848901516200088b601f8916826200077f565b8355505b6001600288020188555050505b505050505050565b7f4e487b7100000000000000000000000000000000000000000000000000000000600052602160045260246000fd5b60008160601b9050919050565b6000620008ed82620008d3565b9050919050565b60006200090182620008e0565b9050919050565b6200091d620009178262000411565b620008f4565b82525050565b6000819050919050565b620009426200093c82620003b6565b62000923565b82525050565b600062000956828562000908565b6014820191506200096882846200092d565b6020820191508190509392505050565b7f4e487b7100000000000000000000000000000000000000000000000000000000600052601260045260246000fd5b6000620009b482620003b6565b9150620009c183620003b6565b925082620009d457620009d362000978565b5b828206905092915050565b610dbc80620009ef6000396000f3fe608060405234801561001057600080fd5b50600436106100ea5760003560e01c80639a3a857e1161008c578063a6f9dae111610066578063a6f9dae1146101c9578063b81e43fc146101e5578063e697bc3114610203578063f15358941461020d576100ea565b80639a3a857e146101995780639fad6d8d146101a3578063a2b40d19146101ad576100ea565b80635de20d13116100c85780635de20d1314610149578063660e16c314610153578063893d20e81461017157806398d5fdca1461018f576100ea565b806303f053ca146100ef5780631a6fb3421461010d5780633bc21fcb1461012b575b600080fd5b6100f7610233565b60405161010491906107b7565b60405180910390f35b61011561023c565b6040516101229190610849565b60405180910390f35b610133610253565b60405161014091906108ac565b60405180910390f35b61015161026a565b005b61015b6102ab565b60405161016891906107b7565b60405180910390f35b6101796102b5565b6040516101869190610908565b60405180910390f35b6101976102df565b005b6101a161031a565b005b6101ab61035b565b005b6101c760048036038101906101c29190610954565b61039c565b005b6101e360048036038101906101de91906109ad565b6103b4565b005b6101ed610452565b6040516101fa9190610a6a565b60405180910390f35b61020b6104e4565b005b610215610525565b60405161022a99989796959493929190610ad4565b60405180910390f35b60008054905090565b6000600460029054906101000a900460ff16905090565b6000600460019054906101000a900460ff16905090565b6102746002610744565b7f0502309765acdae9d02c67c5c7e531ccbab4cafcddfd84c575ff606185eb36256040516102a190610bc2565b60405180910390a1565b6000600554905090565b6000600660009054906101000a900473ffffffffffffffffffffffffffffffffffffffff16905090565b7f5e7f09d6b0a80bb9ad87621a3616179bae6c1cd65f01332936516c18aa437c2460055460405161031091906107b7565b60405180910390a1565b6103246001610771565b7f135c7db0397c6607deb77f9111f028cac1b773b9b6e4c9361f22ed1a6056f8e560405161035190610c2e565b60405180910390a1565b6103656000610771565b7f135c7db0397c6607deb77f9111f028cac1b773b9b6e4c9361f22ed1a6056f8e560405161039290610c9a565b60405180910390a1565b60055481036103aa57600080fd5b8060058190555050565b600660009054906101000a900473ffffffffffffffffffffffffffffffffffffffff1673ffffffffffffffffffffffffffffffffffffffff168173ffffffffffffffffffffffffffffffffffffffff160361040e57600080fd5b80600660006101000a81548173ffffffffffffffffffffffffffffffffffffffff021916908373ffffffffffffffffffffffffffffffffffffffff16021790555050565b60606001805461046190610ce9565b80601f016020809104026020016040519081016040528092919081815260200182805461048d90610ce9565b80156104da5780601f106104af576101008083540402835291602001916104da565b820191906000526020600020905b8154815290600101906020018083116104bd57829003601f168201915b5050505050905090565b6104ee6001610744565b7f0502309765acdae9d02c67c5c7e531ccbab4cafcddfd84c575ff606185eb362560405161051b90610d66565b60405180910390a1565b600080606080606060008060008030600054600160026003600460009054906101000a900460ff16600460019054906101000a900460ff16600554600660009054906101000a900473ffffffffffffffffffffffffffffffffffffffff1686805461058f90610ce9565b80601f01602080910402602001604051908101604052809291908181526020018280546105bb90610ce9565b80156106085780601f106105dd57610100808354040283529160200191610608565b820191906000526020600020905b8154815290600101906020018083116105eb57829003601f168201915b5050505050965085805461061b90610ce9565b80601f016020809104026020016040519081016040528092919081815260200182805461064790610ce9565b80156106945780601f1061066957610100808354040283529160200191610694565b820191906000526020600020905b81548152906001019060200180831161067757829003601f168201915b505050505095508480546106a790610ce9565b80601f01602080910402602001604051908101604052809291908181526020018280546106d390610ce9565b80156107205780601f106106f557610100808354040283529160200191610720565b820191906000526020600020905b81548152906001019060200180831161070357829003601f168201915b50505050509450985098509850985098509850985098509850909192939495969798565b80600460016101000a81548160ff02191690836002811115610769576107686107d2565b5b021790555050565b80600460026101000a81548160ff02191690836001811115610796576107956107d2565b5b021790555050565b6000819050919050565b6107b18161079e565b82525050565b60006020820190506107cc60008301846107a8565b92915050565b7f4e487b7100000000000000000000000000000000000000000000000000000000600052602160045260246000fd5b60028110610812576108116107d2565b5b50565b600081905061082382610801565b919050565b600061083382610815565b9050919050565b61084381610828565b82525050565b600060208201905061085e600083018461083a565b92915050565b60038110610875576108746107d2565b5b50565b600081905061088682610864565b919050565b600061089682610878565b9050919050565b6108a68161088b565b82525050565b60006020820190506108c1600083018461089d565b92915050565b600073ffffffffffffffffffffffffffffffffffffffff82169050919050565b60006108f2826108c7565b9050919050565b610902816108e7565b82525050565b600060208201905061091d60008301846108f9565b92915050565b600080fd5b6109318161079e565b811461093c57600080fd5b50565b60008135905061094e81610928565b92915050565b60006020828403121561096a57610969610923565b5b60006109788482850161093f565b91505092915050565b61098a816108e7565b811461099557600080fd5b50565b6000813590506109a781610981565b92915050565b6000602082840312156109c3576109c2610923565b5b60006109d184828501610998565b91505092915050565b600081519050919050565b600082825260208201905092915050565b60005b83811015610a145780820151818401526020810190506109f9565b60008484015250505050565b6000601f19601f8301169050919050565b6000610a3c826109da565b610a4681856109e5565b9350610a568185602086016109f6565b610a5f81610a20565b840191505092915050565b60006020820190508181036000830152610a848184610a31565b905092915050565b60038110610a9d57610a9c6107d2565b5b50565b6000819050610aae82610a8c565b919050565b6000610abe82610aa0565b9050919050565b610ace81610ab3565b82525050565b600061012082019050610aea600083018c6108f9565b610af7602083018b6107a8565b8181036040830152610b09818a610a31565b90508181036060830152610b1d8189610a31565b90508181036080830152610b318188610a31565b9050610b4060a0830187610ac5565b610b4d60c083018661089d565b610b5a60e08301856107a8565b610b686101008301846108f9565b9a9950505050505050505050565b7f5469636b6574537461747573203d204558504952454400000000000000000000600082015250565b6000610bac6016836109e5565b9150610bb782610b76565b602082019050919050565b60006020820190508181036000830152610bdb81610b9f565b9050919050565b7f5472616e73666572537461747573203d204e4f5f5452414e5346455249424c45600082015250565b6000610c186020836109e5565b9150610c2382610be2565b602082019050919050565b60006020820190508181036000830152610c4781610c0b565b9050919050565b7f5472616e73666572537461747573203d205452414e5346455249424c45000000600082015250565b6000610c84601d836109e5565b9150610c8f82610c4e565b602082019050919050565b60006020820190508181036000830152610cb381610c77565b9050919050565b7f4e487b7100000000000000000000000000000000000000000000000000000000600052602260045260246000fd5b60006002820490506001821680610d0157607f821691505b602082108103610d1457610d13610cba565b5b50919050565b7f5469636b6574537461747573203d205553454400000000000000000000000000600082015250565b6000610d506013836109e5565b9150610d5b82610d1a565b602082019050919050565b60006020820190508181036000830152610d7f81610d43565b905091905056fea26469706673582212205d61f080c632db50a2fdc947955117eede9dcb69660cf5595d4250a59b70df4364736f6c63430008110033a26469706673582212201eccc21c20a33ccd642b47cd38e3c993356aaedb977d46d670113e2cb85ff07a64736f6c63430008110033",
  "immutableReferences": {
    "142": [
      {
        "length": 32,
        "start": 1636
      }
    ]
  },
  "source": "// SPDX-License-Identifier: MIT\npragma solidity ^0.8.7;\n\nimport \"@openzeppelin/contracts/access/Ownable.sol\";\nimport \"./Ticket.sol\";\n\ncontract Manager is Ownable {\n    address public immutable MANAGER;\n    //Array of tickets\n    Ticket[] private ticketList;\n    //Array of owners\n    address[] private Owners;\n\n    //Amount of fee to calculate percentage\n    uint256 fee = 5;\n    //Amount of tickets\n    uint256 ticketCount;\n    //Total funds of all tickets\n    uint256 ticketFunds;\n    string private name;\n\n    /*Events to call in many functions, \n    to improve user experience*/\n    event TicketCreated(string eventName, uint256 price, address owner);\n    event FundsReceived(uint256 amount);\n    event TicketTransfered(uint256 ticketPrice, address newOner);\n    event NewTicketPrice(uint256 newPrice);\n    event ShowComission(uint256);\n    event TicketDeleted(uint256);\n    event ViewStatistics(uint256, uint256);\n    event TicketCount(uint256);\n    event ManagerName(string name);\n\n    //Receive & fallback so that the contract can receive ethers\n    receive() external payable {\n        emit FundsReceived(msg.value);\n    }\n\n    fallback() external payable {\n        emit FundsReceived(msg.value);\n    }\n\n    constructor(string memory managerName) {\n        MANAGER = msg.sender;\n        name = managerName;\n    }\n\n    function getManagerName() public {\n        emit ManagerName(name);\n    }\n\n    /*FUNCTION 1 => Tokenize a ticket\n    It takes the parameters defined by the constructor of Ticket.sol\n    */\n    function createTicket(\n        string memory _eventName,\n        string memory _eventDate,\n        string memory _eventDescription,\n        EventType _eventType,\n        TicketStatus _ticketStatus,\n        TransferStatus _transferStatus,\n        uint256 _price,\n        address\n    ) public payable {\n        Ticket ticket = new Ticket(\n            _eventName,\n            _eventDate,\n            _eventDescription,\n            _eventType,\n            _ticketStatus,\n            _transferStatus,\n            _price,\n            msg.sender\n        );\n        Owners.push(msg.sender);\n        ticketList.push(ticket);\n        ticketCount += 1;\n        ticketFunds = ticketFunds + _price;\n        emit TicketCreated(_eventName, _price, address(msg.sender));\n    }\n\n    //Function to see all tickets in the dApp\n    function totalTickets() public returns (uint256 total) {\n        emit TicketCount(total);\n        return ticketList.length;\n    }\n\n    function getTickets() public view returns (Ticket[] memory) {\n        return ticketList;\n    }\n\n    //Function to view the Ticket Address from the index\n    function showTicketAddr(uint256 index) public view returns (Ticket) {\n        return ticketList[index];\n    }\n\n    //Function to view the Ticket's info through the index\n    function showAllTickets(uint256 index)\n        public\n        view\n        returns (\n            address ticketAddr,\n            uint256 ticketId,\n            string memory eventName,\n            string memory eventDate,\n            string memory eventDescription,\n            EventType eventType,\n            TicketStatus ticketStatus,\n            uint256 ticketPrice,\n            address owner\n        )\n    {\n        return Ticket(ticketList[index]).showInformation();\n    }\n\n    //Function to view the Ticket's info through the address\n    function showTicketsByAddress(address _ticketAddr)\n        public\n        view\n        returns (\n            address ticketAddr,\n            uint256 ticketId,\n            string memory eventName,\n            string memory eventDate,\n            string memory eventDescription,\n            EventType eventType,\n            TicketStatus ticketStatus,\n            uint256 ticketPrice,\n            address owner\n        )\n    {\n        return Ticket(_ticketAddr).showInformation();\n    }\n\n    /*\n        Function to transfer a Ticket\n        The ticket must be Transferible and Valid\n    */\n    function transferTicket(uint256 index, address newOwner) public payable {\n        require(\n            ticketList[index].getTransferStatus() ==\n                TransferStatus.TRANSFERIBLE,\n            \"This ticket isn't transferible\"\n        );\n        require(\n            ticketList[index].getTicketStatus() == TicketStatus.VALID,\n            \"This ticket isn't valid\"\n        );\n        address preOwner = ticketList[index].getOwner();\n        (bool sent, ) = preOwner.call{value: msg.value}(\"\");\n        require(sent, \"Error to transfer ticket\");\n        ticketList[index].changeOwner(newOwner);\n        emit TicketTransfered(msg.value, newOwner);\n    }\n\n    //Function to get the Fee Percentage\n    function getFee(uint256 ticketPrice) public view returns (uint256) {\n        return (ticketPrice * fee) / 100;\n    }\n\n    /*\n        Function to change the ticket price\n        A 5% commission is charged to the manager\n    */\n    function changeTicketPrice(address ticketAddr, uint256 newPrice)\n        public\n        payable\n    {\n        Ticket newTicket = Ticket(ticketAddr);\n        uint256 feeToCheck = getFee(newPrice);\n\n        require(\n            msg.value >= feeToCheck,\n            \"Fee received isn't enough. Send the 5% of new price\"\n        );\n\n        Ticket(newTicket).changePrice(newPrice);\n\n        emit NewTicketPrice(newPrice);\n        emit ShowComission(msg.value);\n    }\n\n    /* Another way of changeTicketPrice method\n    \n        function changeTicketPrice(Ticket ticket, uint256 newPrice) public payable {\n        uint256 feeToCheck = getFee(newPrice);\n\n        require(\n            msg.value >= feeToCheck,\n            \"Fee received isn't enough. Send the 5% of new price\"\n        );\n\n        Ticket(ticket).changePrice(newPrice);\n\n        emit NewTicketPrice(newPrice);\n        emit ShowComission(msg.value);\n    }\n    */\n\n    //Function to return the quantity of tickets in the dApp and the total funds of them\n    function showStatistics()\n        public\n        returns (uint256 allTickets, uint256 allFunds)\n    {\n        uint256 tickets = ticketCount;\n        uint256 totalFunds = ticketFunds;\n        emit ViewStatistics(tickets, totalFunds);\n        return (ticketCount, ticketFunds);\n    }\n\n    //Function to delete a ticket of the list\n    function deleteTicket(uint256 ticketIndex) public {\n        require(ticketIndex < ticketList.length, \"Index not found\");\n\n        for (uint256 i = ticketIndex; i < ticketList.length - 1; i++) {\n            ticketList[i] = ticketList[i + 1];\n        }\n        ticketList.pop();\n        ticketCount -= 1;\n        emit TicketDeleted(ticketIndex);\n    }\n}\n",
  "sourcePath": "D:\\CODER Programacion\\2022\\Solidity\\trabajoFinal\\contracts\\Manager.sol",
  "compiler": {
    "name": "solc",
    "version": "0.8.17+commit.8df45f5f.Emscripten.clang"
  },
  "schemaVersion": "3.4.10",
  "updatedAt": "2022-12-05T23:01:27.452Z",
  "networkType": "ethereum",
  "devdoc": {
    "kind": "dev",
    "methods": {
      "owner()": {
        "details": "Returns the address of the current owner."
      },
      "renounceOwnership()": {
        "details": "Leaves the contract without owner. It will not be possible to call `onlyOwner` functions anymore. Can only be called by the current owner. NOTE: Renouncing ownership will leave the contract without an owner, thereby removing any functionality that is only available to the owner."
      },
      "transferOwnership(address)": {
        "details": "Transfers ownership of the contract to a new account (`newOwner`). Can only be called by the current owner."
      }
    },
    "version": 1
  },
  "userdoc": {
    "kind": "user",
    "methods": {},
    "version": 1
  }
}