{
  "contractName": "Manager",
  "abi": [
    {
      "inputs": [],
      "stateMutability": "nonpayable",
      "type": "constructor"
    },
    {
      "anonymous": false,
      "inputs": [
        {
          "indexed": false,
          "internalType": "uint256",
          "name": "amount",
          "type": "uint256"
        }
      ],
      "name": "FundsReceived",
      "type": "event"
    },
    {
      "anonymous": false,
      "inputs": [
        {
          "indexed": false,
          "internalType": "address",
          "name": "newOner",
          "type": "address"
        }
      ],
      "name": "NewOwner",
      "type": "event"
    },
    {
      "anonymous": false,
      "inputs": [
        {
          "indexed": false,
          "internalType": "string",
          "name": "eventName",
          "type": "string"
        },
        {
          "indexed": false,
          "internalType": "uint256",
          "name": "price",
          "type": "uint256"
        },
        {
          "indexed": false,
          "internalType": "address",
          "name": "owner",
          "type": "address"
        }
      ],
      "name": "NewTicket",
      "type": "event"
    },
    {
      "anonymous": false,
      "inputs": [
        {
          "indexed": false,
          "internalType": "uint256",
          "name": "newPrice",
          "type": "uint256"
        }
      ],
      "name": "NewTicketPrice",
      "type": "event"
    },
    {
      "anonymous": false,
      "inputs": [
        {
          "indexed": true,
          "internalType": "address",
          "name": "previousOwner",
          "type": "address"
        },
        {
          "indexed": true,
          "internalType": "address",
          "name": "newOwner",
          "type": "address"
        }
      ],
      "name": "OwnershipTransferred",
      "type": "event"
    },
    {
      "stateMutability": "payable",
      "type": "fallback",
      "payable": true
    },
    {
      "inputs": [],
      "name": "MANAGER",
      "outputs": [
        {
          "internalType": "address",
          "name": "",
          "type": "address"
        }
      ],
      "stateMutability": "view",
      "type": "function",
      "constant": true
    },
    {
      "inputs": [],
      "name": "owner",
      "outputs": [
        {
          "internalType": "address",
          "name": "",
          "type": "address"
        }
      ],
      "stateMutability": "view",
      "type": "function",
      "constant": true
    },
    {
      "inputs": [],
      "name": "renounceOwnership",
      "outputs": [],
      "stateMutability": "nonpayable",
      "type": "function"
    },
    {
      "inputs": [],
      "name": "ticketCount",
      "outputs": [
        {
          "internalType": "uint256",
          "name": "",
          "type": "uint256"
        }
      ],
      "stateMutability": "view",
      "type": "function",
      "constant": true
    },
    {
      "inputs": [
        {
          "internalType": "address",
          "name": "newOwner",
          "type": "address"
        }
      ],
      "name": "transferOwnership",
      "outputs": [],
      "stateMutability": "nonpayable",
      "type": "function"
    },
    {
      "stateMutability": "payable",
      "type": "receive",
      "payable": true
    },
    {
      "inputs": [
        {
          "internalType": "string",
          "name": "_eventName",
          "type": "string"
        },
        {
          "internalType": "string",
          "name": "_eventDate",
          "type": "string"
        },
        {
          "internalType": "string",
          "name": "_eventDescription",
          "type": "string"
        },
        {
          "internalType": "enum EventType",
          "name": "_eventType",
          "type": "uint8"
        },
        {
          "internalType": "enum TicketStatus",
          "name": "_ticketStatus",
          "type": "uint8"
        },
        {
          "internalType": "enum TransferStatus",
          "name": "_transferStatus",
          "type": "uint8"
        },
        {
          "internalType": "uint256",
          "name": "_price",
          "type": "uint256"
        },
        {
          "internalType": "address",
          "name": "",
          "type": "address"
        }
      ],
      "name": "createTicket",
      "outputs": [],
      "stateMutability": "payable",
      "type": "function",
      "payable": true
    },
    {
      "inputs": [],
      "name": "totalTickets",
      "outputs": [
        {
          "internalType": "uint256",
          "name": "total",
          "type": "uint256"
        }
      ],
      "stateMutability": "view",
      "type": "function",
      "constant": true
    },
    {
      "inputs": [],
      "name": "getTickets",
      "outputs": [
        {
          "internalType": "contract Ticket[]",
          "name": "",
          "type": "address[]"
        }
      ],
      "stateMutability": "view",
      "type": "function",
      "constant": true
    },
    {
      "inputs": [
        {
          "internalType": "uint256",
          "name": "index",
          "type": "uint256"
        }
      ],
      "name": "showAllTickets",
      "outputs": [
        {
          "internalType": "address",
          "name": "ticketAddr",
          "type": "address"
        },
        {
          "internalType": "uint256",
          "name": "ticketId",
          "type": "uint256"
        },
        {
          "internalType": "string",
          "name": "eventName",
          "type": "string"
        },
        {
          "internalType": "string",
          "name": "eventDate",
          "type": "string"
        },
        {
          "internalType": "string",
          "name": "eventDescription",
          "type": "string"
        },
        {
          "internalType": "enum EventType",
          "name": "eventType",
          "type": "uint8"
        },
        {
          "internalType": "enum TicketStatus",
          "name": "ticketStatus",
          "type": "uint8"
        },
        {
          "internalType": "uint256",
          "name": "ticketPrice",
          "type": "uint256"
        },
        {
          "internalType": "address",
          "name": "owner",
          "type": "address"
        }
      ],
      "stateMutability": "view",
      "type": "function",
      "constant": true
    },
    {
      "inputs": [
        {
          "internalType": "address",
          "name": "_ticketAddr",
          "type": "address"
        }
      ],
      "name": "showTicketsByAddress",
      "outputs": [
        {
          "internalType": "address",
          "name": "ticketAddr",
          "type": "address"
        },
        {
          "internalType": "uint256",
          "name": "ticketId",
          "type": "uint256"
        },
        {
          "internalType": "string",
          "name": "eventName",
          "type": "string"
        },
        {
          "internalType": "string",
          "name": "eventDate",
          "type": "string"
        },
        {
          "internalType": "string",
          "name": "eventDescription",
          "type": "string"
        },
        {
          "internalType": "enum EventType",
          "name": "eventType",
          "type": "uint8"
        },
        {
          "internalType": "enum TicketStatus",
          "name": "ticketStatus",
          "type": "uint8"
        },
        {
          "internalType": "uint256",
          "name": "ticketPrice",
          "type": "uint256"
        },
        {
          "internalType": "address",
          "name": "owner",
          "type": "address"
        }
      ],
      "stateMutability": "view",
      "type": "function",
      "constant": true
    },
    {
      "inputs": [
        {
          "internalType": "contract Ticket",
          "name": "ticket",
          "type": "address"
        },
        {
          "internalType": "address",
          "name": "_newOwner",
          "type": "address"
        }
      ],
      "name": "transferTicket",
      "outputs": [],
      "stateMutability": "payable",
      "type": "function",
      "payable": true
    },
    {
      "inputs": [
        {
          "internalType": "contract Ticket",
          "name": "ticket",
          "type": "address"
        }
      ],
      "name": "changeTicketPrice",
      "outputs": [],
      "stateMutability": "payable",
      "type": "function",
      "payable": true
    },
    {
      "inputs": [],
      "name": "showStatistitcs",
      "outputs": [
        {
          "internalType": "uint256",
          "name": "allTickets",
          "type": "uint256"
        },
        {
          "internalType": "uint256",
          "name": "totalFunds",
          "type": "uint256"
        }
      ],
      "stateMutability": "view",
      "type": "function",
      "constant": true
    },
    {
      "inputs": [
        {
          "internalType": "uint256",
          "name": "ticketIndex",
          "type": "uint256"
        }
      ],
      "name": "deleteTicket",
      "outputs": [],
      "stateMutability": "nonpayable",
      "type": "function"
    }
  ],
  "bytecode": "0x60a060405234801561001057600080fd5b5061002d61002261006660201b60201c565b61006e60201b60201c565b3373ffffffffffffffffffffffffffffffffffffffff1660808173ffffffffffffffffffffffffffffffffffffffff1681525050610132565b600033905090565b60008060009054906101000a900473ffffffffffffffffffffffffffffffffffffffff169050816000806101000a81548173ffffffffffffffffffffffffffffffffffffffff021916908373ffffffffffffffffffffffffffffffffffffffff1602179055508173ffffffffffffffffffffffffffffffffffffffff168173ffffffffffffffffffffffffffffffffffffffff167f8be0079c531659141344cd1fd0a4f28419497f9722a3daafe3b4186f6b6457e060405160405180910390a35050565b608051613a7062000155600039600081816105940152610a7a0152613a706000f3fe608060405260043610620000f75760003560e01c80638da5cb5b116200008b578063d0c451c01162000061578063d0c451c01462000327578063d1bc5e951462000373578063dd11247e14620003a4578063f2fde38b14620003d45762000138565b80638da5cb5b146200027b578063af0432db14620002ab578063cfbd900f14620002f75762000138565b80634ac6d23911620000cd5780634ac6d23914620001e35780634ed0262214620002035780635a93fb2d1462000233578063715018a614620002615762000138565b806309208f2914620001735780631b2df8501462000193578063411f93d114620001c35762000138565b3662000138577fbcdc7071c1beb6dcf2744621e0b29a2f2432ee20812d9ca5e3d5e8f9308d93a3346040516200012e919062001138565b60405180910390a1005b7fbcdc7071c1beb6dcf2744621e0b29a2f2432ee20812d9ca5e3d5e8f9308d93a33460405162000169919062001138565b60405180910390a1005b6200019160048036038101906200018b9190620013d9565b62000402565b005b348015620001a057600080fd5b50620001ab62000592565b604051620001ba919062001510565b60405180910390f35b620001e16004803603810190620001db919062001572565b620005b6565b005b620002016004803603810190620001fb9190620015b9565b62000993565b005b3480156200021057600080fd5b506200021b62000b1e565b6040516200022a919062001713565b60405180910390f35b3480156200024057600080fd5b506200025f600480360381019062000259919062001737565b62000bae565b005b3480156200026e57600080fd5b506200027962000d35565b005b3480156200028857600080fd5b506200029362000d4d565b604051620002a2919062001510565b60405180910390f35b348015620002b857600080fd5b50620002d76004803603810190620002d1919062001737565b62000d76565b604051620002ee99989796959493929190620018c3565b60405180910390f35b3480156200030457600080fd5b506200030f62000e5b565b6040516200031e919062001138565b60405180910390f35b3480156200033457600080fd5b506200035360048036038101906200034d919062001977565b62000e61565b6040516200036a99989796959493929190620018c3565b60405180910390f35b3480156200038057600080fd5b506200038b62000f05565b6040516200039b929190620019a9565b60405180910390f35b348015620003b157600080fd5b50620003bc62000f27565b604051620003cb919062001138565b60405180910390f35b348015620003e157600080fd5b50620004006004803603810190620003fa919062001977565b62000f34565b005b600088888888888888336040516200041a906200110f565b6200042d98979695949392919062001a27565b604051809103906000f0801580156200044a573d6000803e3d6000fd5b50905033600260008373ffffffffffffffffffffffffffffffffffffffff1673ffffffffffffffffffffffffffffffffffffffff16815260200190815260200160002060006101000a81548173ffffffffffffffffffffffffffffffffffffffff021916908373ffffffffffffffffffffffffffffffffffffffff1602179055506001819080600181540180825580915050600190039060005260206000200160009091909190916101000a81548173ffffffffffffffffffffffffffffffffffffffff021916908373ffffffffffffffffffffffffffffffffffffffff16021790555060016003600082825462000543919062001af9565b925050819055507fe7ebec627bd4943c5000b1a3704ee12cbcf843f11090612e5609d3f52c5f9b7f8984336040516200057f9392919062001b34565b60405180910390a1505050505050505050565b7f000000000000000000000000000000000000000000000000000000000000000081565b620005c062000fbe565b60006001811115620005d757620005d6620017f2565b5b8273ffffffffffffffffffffffffffffffffffffffff16631a6fb3426040518163ffffffff1660e01b8152600401602060405180830381865afa15801562000623573d6000803e3d6000fd5b505050506040513d601f19601f8201168201806040525081019062000649919062001b8f565b60018111156200065e576200065d620017f2565b5b14620006a1576040517f08c379a0000000000000000000000000000000000000000000000000000000008152600401620006989062001c11565b60405180910390fd5b60006002811115620006b857620006b7620017f2565b5b8273ffffffffffffffffffffffffffffffffffffffff16633bc21fcb6040518163ffffffff1660e01b8152600401602060405180830381865afa15801562000704573d6000803e3d6000fd5b505050506040513d601f19601f820116820180604052508101906200072a919062001c4a565b60028111156200073f576200073e620017f2565b5b1462000782576040517f08c379a0000000000000000000000000000000000000000000000000000000008152600401620007799062001ccc565b60405180910390fd5b6000600260008473ffffffffffffffffffffffffffffffffffffffff1673ffffffffffffffffffffffffffffffffffffffff16815260200190815260200160002060009054906101000a900473ffffffffffffffffffffffffffffffffffffffff16905060008173ffffffffffffffffffffffffffffffffffffffff16346040516200080e9062001d23565b60006040518083038185875af1925050503d80600081146200084d576040519150601f19603f3d011682016040523d82523d6000602084013e62000852565b606091505b505090506001151581151514620008a0576040517f08c379a0000000000000000000000000000000000000000000000000000000008152600401620008979062001d8a565b60405180910390fd5b82600260008673ffffffffffffffffffffffffffffffffffffffff1673ffffffffffffffffffffffffffffffffffffffff16815260200190815260200160002060006101000a81548173ffffffffffffffffffffffffffffffffffffffff021916908373ffffffffffffffffffffffffffffffffffffffff1602179055508373ffffffffffffffffffffffffffffffffffffffff1663a6f9dae1846040518263ffffffff1660e01b815260040162000959919062001510565b600060405180830381600087803b1580156200097457600080fd5b505af115801562000989573d6000803e3d6000fd5b5050505050505050565b6200099d62000fbe565b600060059050600060648234620009b5919062001dac565b620009c1919062001e26565b90508034101562000a09576040517f08c379a000000000000000000000000000000000000000000000000000000000815260040162000a009062001eae565b60405180910390fd5b8273ffffffffffffffffffffffffffffffffffffffff1663a2b40d19346040518263ffffffff1660e01b815260040162000a44919062001138565b600060405180830381600087803b15801562000a5f57600080fd5b505af115801562000a74573d6000803e3d6000fd5b505050507f000000000000000000000000000000000000000000000000000000000000000073ffffffffffffffffffffffffffffffffffffffff166108fc829081150290604051600060405180830381858888f1935050505015801562000adf573d6000803e3d6000fd5b507fcc22794783b5386583c8f5afc561c77f87a06f91f6fa4366b2fcca10a2b9be1d3460405162000b11919062001138565b60405180910390a1505050565b6060600180548060200260200160405190810160405280929190818152602001828054801562000ba457602002820191906000526020600020905b8160009054906101000a900473ffffffffffffffffffffffffffffffffffffffff1673ffffffffffffffffffffffffffffffffffffffff168152602001906001019080831162000b59575b5050505050905090565b62000bb862000fbe565b600180549050811062000c02576040517f08c379a000000000000000000000000000000000000000000000000000000000815260040162000bf99062001f20565b60405180910390fd5b60008190505b6001808054905062000c1b919062001f42565b81101562000ce7576001808262000c33919062001af9565b8154811062000c475762000c4662001f7d565b5b9060005260206000200160009054906101000a900473ffffffffffffffffffffffffffffffffffffffff166001828154811062000c895762000c8862001f7d565b5b9060005260206000200160006101000a81548173ffffffffffffffffffffffffffffffffffffffff021916908373ffffffffffffffffffffffffffffffffffffffff160217905550808062000cde9062001fac565b91505062000c08565b50600180548062000cfd5762000cfc62001ff9565b5b6001900381819060005260206000200160006101000a81549073ffffffffffffffffffffffffffffffffffffffff0219169055905550565b62000d3f62000fbe565b62000d4b600062001043565b565b60008060009054906101000a900473ffffffffffffffffffffffffffffffffffffffff16905090565b600080606080606060008060008060018a8154811062000d9b5762000d9a62001f7d565b5b9060005260206000200160009054906101000a900473ffffffffffffffffffffffffffffffffffffffff1673ffffffffffffffffffffffffffffffffffffffff1663f15358946040518163ffffffff1660e01b8152600401600060405180830381865afa15801562000e11573d6000803e3d6000fd5b505050506040513d6000823e3d601f19601f8201168201806040525081019062000e3c9190620020eb565b9850985098509850985098509850985098509193959799909294969850565b60035481565b60008060608060606000806000808973ffffffffffffffffffffffffffffffffffffffff1663f15358946040518163ffffffff1660e01b8152600401600060405180830381865afa15801562000ebb573d6000803e3d6000fd5b505050506040513d6000823e3d601f19601f8201168201806040525081019062000ee69190620020eb565b9850985098509850985098509850985098509193959799909294969850565b600080600062000f1462000f27565b9050600047905081819350935050509091565b6000600180549050905090565b62000f3e62000fbe565b600073ffffffffffffffffffffffffffffffffffffffff168173ffffffffffffffffffffffffffffffffffffffff160362000fb0576040517f08c379a000000000000000000000000000000000000000000000000000000000815260040162000fa7906200229d565b60405180910390fd5b62000fbb8162001043565b50565b62000fc862001107565b73ffffffffffffffffffffffffffffffffffffffff1662000fe862000d4d565b73ffffffffffffffffffffffffffffffffffffffff161462001041576040517f08c379a000000000000000000000000000000000000000000000000000000000815260040162001038906200230f565b60405180910390fd5b565b60008060009054906101000a900473ffffffffffffffffffffffffffffffffffffffff169050816000806101000a81548173ffffffffffffffffffffffffffffffffffffffff021916908373ffffffffffffffffffffffffffffffffffffffff1602179055508173ffffffffffffffffffffffffffffffffffffffff168173ffffffffffffffffffffffffffffffffffffffff167f8be0079c531659141344cd1fd0a4f28419497f9722a3daafe3b4186f6b6457e060405160405180910390a35050565b600033905090565b611709806200233283390190565b6000819050919050565b62001132816200111d565b82525050565b60006020820190506200114f600083018462001127565b92915050565b6000604051905090565b600080fd5b600080fd5b600080fd5b600080fd5b6000601f19601f8301169050919050565b7f4e487b7100000000000000000000000000000000000000000000000000000000600052604160045260246000fd5b620011be8262001173565b810181811067ffffffffffffffff82111715620011e057620011df62001184565b5b80604052505050565b6000620011f562001155565b9050620012038282620011b3565b919050565b600067ffffffffffffffff82111562001226576200122562001184565b5b620012318262001173565b9050602081019050919050565b82818337600083830152505050565b6000620012646200125e8462001208565b620011e9565b9050828152602081018484840111156200128357620012826200116e565b5b620012908482856200123e565b509392505050565b600082601f830112620012b057620012af62001169565b5b8135620012c28482602086016200124d565b91505092915050565b60038110620012d957600080fd5b50565b600081359050620012ed81620012cb565b92915050565b600381106200130157600080fd5b50565b6000813590506200131581620012f3565b92915050565b600281106200132957600080fd5b50565b6000813590506200133d816200131b565b92915050565b6200134e816200111d565b81146200135a57600080fd5b50565b6000813590506200136e8162001343565b92915050565b600073ffffffffffffffffffffffffffffffffffffffff82169050919050565b6000620013a18262001374565b9050919050565b620013b38162001394565b8114620013bf57600080fd5b50565b600081359050620013d381620013a8565b92915050565b600080600080600080600080610100898b031215620013fd57620013fc6200115f565b5b600089013567ffffffffffffffff8111156200141e576200141d62001164565b5b6200142c8b828c0162001298565b985050602089013567ffffffffffffffff81111562001450576200144f62001164565b5b6200145e8b828c0162001298565b975050604089013567ffffffffffffffff81111562001482576200148162001164565b5b620014908b828c0162001298565b9650506060620014a38b828c01620012dc565b9550506080620014b68b828c0162001304565b94505060a0620014c98b828c016200132c565b93505060c0620014dc8b828c016200135d565b92505060e0620014ef8b828c01620013c2565b9150509295985092959890939650565b6200150a8162001394565b82525050565b6000602082019050620015276000830184620014ff565b92915050565b60006200153a8262001394565b9050919050565b6200154c816200152d565b81146200155857600080fd5b50565b6000813590506200156c8162001541565b92915050565b600080604083850312156200158c576200158b6200115f565b5b60006200159c858286016200155b565b9250506020620015af85828601620013c2565b9150509250929050565b600060208284031215620015d257620015d16200115f565b5b6000620015e2848285016200155b565b91505092915050565b600081519050919050565b600082825260208201905092915050565b6000819050602082019050919050565b6000819050919050565b6000620016426200163c620016368462001374565b62001617565b62001374565b9050919050565b6000620016568262001621565b9050919050565b60006200166a8262001649565b9050919050565b6200167c816200165d565b82525050565b600062001690838362001671565b60208301905092915050565b6000602082019050919050565b6000620016b682620015eb565b620016c28185620015f6565b9350620016cf8362001607565b8060005b8381101562001706578151620016ea888262001682565b9750620016f7836200169c565b925050600181019050620016d3565b5085935050505092915050565b600060208201905081810360008301526200172f8184620016a9565b905092915050565b60006020828403121562001750576200174f6200115f565b5b600062001760848285016200135d565b91505092915050565b600081519050919050565b600082825260208201905092915050565b60005b83811015620017a557808201518184015260208101905062001788565b60008484015250505050565b6000620017be8262001769565b620017ca818562001774565b9350620017dc81856020860162001785565b620017e78162001173565b840191505092915050565b7f4e487b7100000000000000000000000000000000000000000000000000000000600052602160045260246000fd5b60038110620018355762001834620017f2565b5b50565b6000819050620018488262001821565b919050565b60006200185a8262001838565b9050919050565b6200186c816200184d565b82525050565b60038110620018865762001885620017f2565b5b50565b6000819050620018998262001872565b919050565b6000620018ab8262001889565b9050919050565b620018bd816200189e565b82525050565b600061012082019050620018db600083018c620014ff565b620018ea602083018b62001127565b8181036040830152620018fe818a620017b1565b90508181036060830152620019148189620017b1565b905081810360808301526200192a8188620017b1565b90506200193b60a083018762001861565b6200194a60c0830186620018b2565b6200195960e083018562001127565b62001969610100830184620014ff565b9a9950505050505050505050565b60006020828403121562001990576200198f6200115f565b5b6000620019a084828501620013c2565b91505092915050565b6000604082019050620019c0600083018562001127565b620019cf602083018462001127565b9392505050565b60028110620019ea57620019e9620017f2565b5b50565b6000819050620019fd82620019d6565b919050565b600062001a0f82620019ed565b9050919050565b62001a218162001a02565b82525050565b600061010082019050818103600083015262001a44818b620017b1565b9050818103602083015262001a5a818a620017b1565b9050818103604083015262001a708189620017b1565b905062001a81606083018862001861565b62001a906080830187620018b2565b62001a9f60a083018662001a16565b62001aae60c083018562001127565b62001abd60e0830184620014ff565b9998505050505050505050565b7f4e487b7100000000000000000000000000000000000000000000000000000000600052601160045260246000fd5b600062001b06826200111d565b915062001b13836200111d565b925082820190508082111562001b2e5762001b2d62001aca565b5b92915050565b6000606082019050818103600083015262001b508186620017b1565b905062001b61602083018562001127565b62001b706040830184620014ff565b949350505050565b60008151905062001b89816200131b565b92915050565b60006020828403121562001ba85762001ba76200115f565b5b600062001bb88482850162001b78565b91505092915050565b7f54686973207469636b65742069736e2774207472616e7366657269626c650000600082015250565b600062001bf9601e8362001774565b915062001c068262001bc1565b602082019050919050565b6000602082019050818103600083015262001c2c8162001bea565b9050919050565b60008151905062001c4481620012f3565b92915050565b60006020828403121562001c635762001c626200115f565b5b600062001c738482850162001c33565b91505092915050565b7f54686973207469636b65742069736e27742076616c6964000000000000000000600082015250565b600062001cb460178362001774565b915062001cc18262001c7c565b602082019050919050565b6000602082019050818103600083015262001ce78162001ca5565b9050919050565b600081905092915050565b50565b600062001d0b60008362001cee565b915062001d188262001cf9565b600082019050919050565b600062001d308262001cfc565b9150819050919050565b7f4572726f7220746f207472616e73666572207469636b65740000000000000000600082015250565b600062001d7260188362001774565b915062001d7f8262001d3a565b602082019050919050565b6000602082019050818103600083015262001da58162001d63565b9050919050565b600062001db9826200111d565b915062001dc6836200111d565b925082820262001dd6816200111d565b9150828204841483151762001df05762001def62001aca565b5b5092915050565b7f4e487b7100000000000000000000000000000000000000000000000000000000600052601260045260246000fd5b600062001e33826200111d565b915062001e40836200111d565b92508262001e535762001e5262001df7565b5b828204905092915050565b7f54686520616d6f756e7420697320696e73756666696369656e74000000000000600082015250565b600062001e96601a8362001774565b915062001ea38262001e5e565b602082019050919050565b6000602082019050818103600083015262001ec98162001e87565b9050919050565b7f496e646578206e6f7420666f756e640000000000000000000000000000000000600082015250565b600062001f08600f8362001774565b915062001f158262001ed0565b602082019050919050565b6000602082019050818103600083015262001f3b8162001ef9565b9050919050565b600062001f4f826200111d565b915062001f5c836200111d565b925082820390508181111562001f775762001f7662001aca565b5b92915050565b7f4e487b7100000000000000000000000000000000000000000000000000000000600052603260045260246000fd5b600062001fb9826200111d565b91507fffffffffffffffffffffffffffffffffffffffffffffffffffffffffffffffff820362001fee5762001fed62001aca565b5b600182019050919050565b7f4e487b7100000000000000000000000000000000000000000000000000000000600052603160045260246000fd5b6000815190506200203981620013a8565b92915050565b600081519050620020508162001343565b92915050565b60006200206d620020678462001208565b620011e9565b9050828152602081018484840111156200208c576200208b6200116e565b5b6200209984828562001785565b509392505050565b600082601f830112620020b957620020b862001169565b5b8151620020cb84826020860162002056565b91505092915050565b600081519050620020e581620012cb565b92915050565b60008060008060008060008060006101208a8c0312156200211157620021106200115f565b5b6000620021218c828d0162002028565b9950506020620021348c828d016200203f565b98505060408a015167ffffffffffffffff81111562002158576200215762001164565b5b620021668c828d01620020a1565b97505060608a015167ffffffffffffffff8111156200218a576200218962001164565b5b620021988c828d01620020a1565b96505060808a015167ffffffffffffffff811115620021bc57620021bb62001164565b5b620021ca8c828d01620020a1565b95505060a0620021dd8c828d01620020d4565b94505060c0620021f08c828d0162001c33565b93505060e0620022038c828d016200203f565b925050610100620022178c828d0162002028565b9150509295985092959850929598565b7f4f776e61626c653a206e6577206f776e657220697320746865207a65726f206160008201527f6464726573730000000000000000000000000000000000000000000000000000602082015250565b60006200228560268362001774565b9150620022928262002227565b604082019050919050565b60006020820190508181036000830152620022b88162002276565b9050919050565b7f4f776e61626c653a2063616c6c6572206973206e6f7420746865206f776e6572600082015250565b6000620022f760208362001774565b91506200230482620022bf565b602082019050919050565b600060208201905081810360008301526200232a81620022e8565b905091905056fe60806040523480156200001157600080fd5b506040516200170938038062001709833981810160405281019062000037919062000456565b620000476200016060201b60201c565b60008190555087600190816200005e9190620007bd565b508660029081620000709190620007bd565b508560039081620000829190620007bd565b5084600460006101000a81548160ff02191690836002811115620000ab57620000aa620008a4565b5b021790555083600460016101000a81548160ff02191690836002811115620000d857620000d7620008a4565b5b021790555082600460026101000a81548160ff02191690836001811115620001055762000104620008a4565b5b02179055508160058190555080600660006101000a81548173ffffffffffffffffffffffffffffffffffffffff021916908373ffffffffffffffffffffffffffffffffffffffff1602179055505050505050505050620009df565b6000806305f5e10033426040516020016200017d92919062000948565b6040516020818303038152906040528051906020012060001c620001a29190620009a7565b90508091505090565b6000604051905090565b600080fd5b600080fd5b600080fd5b600080fd5b6000601f19601f8301169050919050565b7f4e487b7100000000000000000000000000000000000000000000000000000000600052604160045260246000fd5b6200021482620001c9565b810181811067ffffffffffffffff82111715620002365762000235620001da565b5b80604052505050565b60006200024b620001ab565b905062000259828262000209565b919050565b600067ffffffffffffffff8211156200027c576200027b620001da565b5b6200028782620001c9565b9050602081019050919050565b60005b83811015620002b457808201518184015260208101905062000297565b60008484015250505050565b6000620002d7620002d1846200025e565b6200023f565b905082815260208101848484011115620002f657620002f5620001c4565b5b6200030384828562000294565b509392505050565b600082601f830112620003235762000322620001bf565b5b815162000335848260208601620002c0565b91505092915050565b600381106200034c57600080fd5b50565b60008151905062000360816200033e565b92915050565b600381106200037457600080fd5b50565b600081519050620003888162000366565b92915050565b600281106200039c57600080fd5b50565b600081519050620003b0816200038e565b92915050565b6000819050919050565b620003cb81620003b6565b8114620003d757600080fd5b50565b600081519050620003eb81620003c0565b92915050565b600073ffffffffffffffffffffffffffffffffffffffff82169050919050565b60006200041e82620003f1565b9050919050565b620004308162000411565b81146200043c57600080fd5b50565b600081519050620004508162000425565b92915050565b600080600080600080600080610100898b0312156200047a5762000479620001b5565b5b600089015167ffffffffffffffff8111156200049b576200049a620001ba565b5b620004a98b828c016200030b565b985050602089015167ffffffffffffffff811115620004cd57620004cc620001ba565b5b620004db8b828c016200030b565b975050604089015167ffffffffffffffff811115620004ff57620004fe620001ba565b5b6200050d8b828c016200030b565b9650506060620005208b828c016200034f565b9550506080620005338b828c0162000377565b94505060a0620005468b828c016200039f565b93505060c0620005598b828c01620003da565b92505060e06200056c8b828c016200043f565b9150509295985092959890939650565b600081519050919050565b7f4e487b7100000000000000000000000000000000000000000000000000000000600052602260045260246000fd5b60006002820490506001821680620005cf57607f821691505b602082108103620005e557620005e462000587565b5b50919050565b60008190508160005260206000209050919050565b60006020601f8301049050919050565b600082821b905092915050565b6000600883026200064f7fffffffffffffffffffffffffffffffffffffffffffffffffffffffffffffffff8262000610565b6200065b868362000610565b95508019841693508086168417925050509392505050565b6000819050919050565b60006200069e620006986200069284620003b6565b62000673565b620003b6565b9050919050565b6000819050919050565b620006ba836200067d565b620006d2620006c982620006a5565b8484546200061d565b825550505050565b600090565b620006e9620006da565b620006f6818484620006af565b505050565b5b818110156200071e5762000712600082620006df565b600181019050620006fc565b5050565b601f8211156200076d576200073781620005eb565b620007428462000600565b8101602085101562000752578190505b6200076a620007618562000600565b830182620006fb565b50505b505050565b600082821c905092915050565b6000620007926000198460080262000772565b1980831691505092915050565b6000620007ad83836200077f565b9150826002028217905092915050565b620007c8826200057c565b67ffffffffffffffff811115620007e457620007e3620001da565b5b620007f08254620005b6565b620007fd82828562000722565b600060209050601f83116001811462000835576000841562000820578287015190505b6200082c85826200079f565b8655506200089c565b601f1984166200084586620005eb565b60005b828110156200086f5784890151825560018201915060208501945060208101905062000848565b868310156200088f57848901516200088b601f8916826200077f565b8355505b6001600288020188555050505b505050505050565b7f4e487b7100000000000000000000000000000000000000000000000000000000600052602160045260246000fd5b60008160601b9050919050565b6000620008ed82620008d3565b9050919050565b60006200090182620008e0565b9050919050565b6200091d620009178262000411565b620008f4565b82525050565b6000819050919050565b620009426200093c82620003b6565b62000923565b82525050565b600062000956828562000908565b6014820191506200096882846200092d565b6020820191508190509392505050565b7f4e487b7100000000000000000000000000000000000000000000000000000000600052601260045260246000fd5b6000620009b482620003b6565b9150620009c183620003b6565b925082620009d457620009d362000978565b5b828206905092915050565b610d1a80620009ef6000396000f3fe608060405234801561001057600080fd5b50600436106100b45760003560e01c80639fad6d8d116100715780639fad6d8d14610145578063a2b40d191461014f578063a6f9dae11461016b578063b81e43fc14610187578063e697bc31146101a5578063f1535894146101af576100b4565b80631a6fb342146100b95780633bc21fcb146100d75780635de20d13146100f5578063660e16c3146100ff578063893d20e81461011d5780639a3a857e1461013b575b600080fd5b6100c16101d5565b6040516100ce9190610773565b60405180910390f35b6100df6101ec565b6040516100ec91906107d6565b60405180910390f35b6100fd610203565b005b610107610244565b604051610114919061080a565b60405180910390f35b61012561024e565b6040516101329190610866565b60405180910390f35b610143610278565b005b61014d6102b9565b005b610169600480360381019061016491906108b2565b6102fa565b005b6101856004803603810190610180919061090b565b610312565b005b61018f6103b0565b60405161019c91906109c8565b60405180910390f35b6101ad610442565b005b6101b7610483565b6040516101cc99989796959493929190610a32565b60405180910390f35b6000600460029054906101000a900460ff16905090565b6000600460019054906101000a900460ff16905090565b61020d60026106a2565b7f0502309765acdae9d02c67c5c7e531ccbab4cafcddfd84c575ff606185eb362560405161023a90610b20565b60405180910390a1565b6000600554905090565b6000600660009054906101000a900473ffffffffffffffffffffffffffffffffffffffff16905090565b61028260016106cf565b7f135c7db0397c6607deb77f9111f028cac1b773b9b6e4c9361f22ed1a6056f8e56040516102af90610b8c565b60405180910390a1565b6102c360006106cf565b7f135c7db0397c6607deb77f9111f028cac1b773b9b6e4c9361f22ed1a6056f8e56040516102f090610bf8565b60405180910390a1565b600554810361030857600080fd5b8060058190555050565b600660009054906101000a900473ffffffffffffffffffffffffffffffffffffffff1673ffffffffffffffffffffffffffffffffffffffff168173ffffffffffffffffffffffffffffffffffffffff160361036c57600080fd5b80600660006101000a81548173ffffffffffffffffffffffffffffffffffffffff021916908373ffffffffffffffffffffffffffffffffffffffff16021790555050565b6060600180546103bf90610c47565b80601f01602080910402602001604051908101604052809291908181526020018280546103eb90610c47565b80156104385780601f1061040d57610100808354040283529160200191610438565b820191906000526020600020905b81548152906001019060200180831161041b57829003601f168201915b5050505050905090565b61044c60016106a2565b7f0502309765acdae9d02c67c5c7e531ccbab4cafcddfd84c575ff606185eb362560405161047990610cc4565b60405180910390a1565b600080606080606060008060008030600054600160026003600460009054906101000a900460ff16600460019054906101000a900460ff16600554600660009054906101000a900473ffffffffffffffffffffffffffffffffffffffff168680546104ed90610c47565b80601f016020809104026020016040519081016040528092919081815260200182805461051990610c47565b80156105665780601f1061053b57610100808354040283529160200191610566565b820191906000526020600020905b81548152906001019060200180831161054957829003601f168201915b5050505050965085805461057990610c47565b80601f01602080910402602001604051908101604052809291908181526020018280546105a590610c47565b80156105f25780601f106105c7576101008083540402835291602001916105f2565b820191906000526020600020905b8154815290600101906020018083116105d557829003601f168201915b5050505050955084805461060590610c47565b80601f016020809104026020016040519081016040528092919081815260200182805461063190610c47565b801561067e5780601f106106535761010080835404028352916020019161067e565b820191906000526020600020905b81548152906001019060200180831161066157829003601f168201915b50505050509450985098509850985098509850985098509850909192939495969798565b80600460016101000a81548160ff021916908360028111156106c7576106c66106fc565b5b021790555050565b80600460026101000a81548160ff021916908360018111156106f4576106f36106fc565b5b021790555050565b7f4e487b7100000000000000000000000000000000000000000000000000000000600052602160045260246000fd5b6002811061073c5761073b6106fc565b5b50565b600081905061074d8261072b565b919050565b600061075d8261073f565b9050919050565b61076d81610752565b82525050565b60006020820190506107886000830184610764565b92915050565b6003811061079f5761079e6106fc565b5b50565b60008190506107b08261078e565b919050565b60006107c0826107a2565b9050919050565b6107d0816107b5565b82525050565b60006020820190506107eb60008301846107c7565b92915050565b6000819050919050565b610804816107f1565b82525050565b600060208201905061081f60008301846107fb565b92915050565b600073ffffffffffffffffffffffffffffffffffffffff82169050919050565b600061085082610825565b9050919050565b61086081610845565b82525050565b600060208201905061087b6000830184610857565b92915050565b600080fd5b61088f816107f1565b811461089a57600080fd5b50565b6000813590506108ac81610886565b92915050565b6000602082840312156108c8576108c7610881565b5b60006108d68482850161089d565b91505092915050565b6108e881610845565b81146108f357600080fd5b50565b600081359050610905816108df565b92915050565b60006020828403121561092157610920610881565b5b600061092f848285016108f6565b91505092915050565b600081519050919050565b600082825260208201905092915050565b60005b83811015610972578082015181840152602081019050610957565b60008484015250505050565b6000601f19601f8301169050919050565b600061099a82610938565b6109a48185610943565b93506109b4818560208601610954565b6109bd8161097e565b840191505092915050565b600060208201905081810360008301526109e2818461098f565b905092915050565b600381106109fb576109fa6106fc565b5b50565b6000819050610a0c826109ea565b919050565b6000610a1c826109fe565b9050919050565b610a2c81610a11565b82525050565b600061012082019050610a48600083018c610857565b610a55602083018b6107fb565b8181036040830152610a67818a61098f565b90508181036060830152610a7b818961098f565b90508181036080830152610a8f818861098f565b9050610a9e60a0830187610a23565b610aab60c08301866107c7565b610ab860e08301856107fb565b610ac6610100830184610857565b9a9950505050505050505050565b7f5469636b6574537461747573203d204558504952454400000000000000000000600082015250565b6000610b0a601683610943565b9150610b1582610ad4565b602082019050919050565b60006020820190508181036000830152610b3981610afd565b9050919050565b7f5472616e73666572537461747573203d204e4f5f5452414e5346455249424c45600082015250565b6000610b76602083610943565b9150610b8182610b40565b602082019050919050565b60006020820190508181036000830152610ba581610b69565b9050919050565b7f5472616e73666572537461747573203d205452414e5346455249424c45000000600082015250565b6000610be2601d83610943565b9150610bed82610bac565b602082019050919050565b60006020820190508181036000830152610c1181610bd5565b9050919050565b7f4e487b7100000000000000000000000000000000000000000000000000000000600052602260045260246000fd5b60006002820490506001821680610c5f57607f821691505b602082108103610c7257610c71610c18565b5b50919050565b7f5469636b6574537461747573203d205553454400000000000000000000000000600082015250565b6000610cae601383610943565b9150610cb982610c78565b602082019050919050565b60006020820190508181036000830152610cdd81610ca1565b905091905056fea2646970667358221220732f6235b4b30411dbda1f2daaa44e38d17e938f1f834680d75d5584678e77c864736f6c63430008110033a264697066735822122050ef142f8f50a7aa3732db4ca3f70c58bf8483d8be8bfc4f7afb65a6cdd016e864736f6c63430008110033",
  "immutableReferences": {
    "142": [
      {
        "length": 32,
        "start": 1428
      },
      {
        "length": 32,
        "start": 2682
      }
    ]
  },
  "source": "// SPDX-License-Identifier: MIT\npragma solidity ^0.8.7;\n\nimport \"@openzeppelin/contracts/access/Ownable.sol\";\nimport \"./Ticket.sol\";\n\ncontract Manager is Ownable {\n    address public immutable MANAGER;\n\n    Ticket[] private ticketList;\n    mapping(Ticket => address) Owners;\n\n    event FundsReceived(uint256 amount);\n    event NewOwner(address newOner);\n    event NewTicketPrice(uint256 newPrice);\n    event NewTicket(string eventName, uint256 price, address owner);\n\n    uint256 public ticketCount;\n\n    receive() external payable {\n        emit FundsReceived(msg.value);\n    }\n\n    fallback() external payable {\n        emit FundsReceived(msg.value);\n    }\n\n    constructor() {\n        MANAGER = msg.sender;\n    }\n\n    /*FUNCTION 1 => Tokenize a ticket\n    It takes the parameters defined by the constructor of Ticket.sol\n    */\n    function createTicket(\n        string memory _eventName,\n        string memory _eventDate,\n        string memory _eventDescription,\n        EventType _eventType,\n        TicketStatus _ticketStatus,\n        TransferStatus _transferStatus,\n        uint256 _price,\n        address\n    ) public payable {\n        Ticket ticket = new Ticket(\n            _eventName,\n            _eventDate,\n            _eventDescription,\n            _eventType,\n            _ticketStatus,\n            _transferStatus,\n            _price,\n            address(msg.sender)\n        );\n        Owners[ticket] = address(msg.sender);\n        ticketList.push(ticket);\n        ticketCount += 1;\n        emit NewTicket(_eventName, _price, address(msg.sender));\n    }\n\n    //Function to see all tickets in the dApp\n    function totalTickets() public view returns (uint256 total) {\n        return ticketList.length;\n    }\n\n    function getTickets() public view returns (Ticket[] memory) {\n        return ticketList;\n    }\n\n    function showAllTickets(uint256 index)\n        public\n        view\n        returns (\n            address ticketAddr,\n            uint256 ticketId,\n            string memory eventName,\n            string memory eventDate,\n            string memory eventDescription,\n            EventType eventType,\n            TicketStatus ticketStatus,\n            uint256 ticketPrice,\n            address owner\n        )\n    {\n        return Ticket(ticketList[index]).showInformation();\n    }\n\n    //Function to see the tickets assigned to an address\n    function showTicketsByAddress(address _ticketAddr)\n        public\n        view\n        returns (\n            address ticketAddr,\n            uint256 ticketId,\n            string memory eventName,\n            string memory eventDate,\n            string memory eventDescription,\n            EventType eventType,\n            TicketStatus ticketStatus,\n            uint256 ticketPrice,\n            address owner\n        )\n    {\n        return Ticket(_ticketAddr).showInformation();\n    }\n\n    //Funcin p/ transferir un ticket (status Transferible)\n    function transferTicket(Ticket ticket, address _newOwner)\n        public\n        payable\n        onlyOwner\n    {\n        require(\n            ticket.getTransferStatus() == TransferStatus.TRANSFERIBLE,\n            \"This ticket isn't transferible\"\n        );\n        require(\n            ticket.getTicketStatus() == TicketStatus.VALID,\n            \"This ticket isn't valid\"\n        );\n\n        address addressSent = Owners[ticket];\n\n        (bool sent, ) = addressSent.call{value: msg.value}(\"\");\n        require(sent == true, \"Error to transfer ticket\");\n\n        Owners[ticket] = _newOwner;\n        Ticket(ticket).changeOwner(_newOwner);\n        //emit NewOwner(newAddress);\n    }\n\n    //Funcin p/ cambiar el precio de un ticket / Se cobra un 5% comision hacia el manager\n    function changeTicketPrice(Ticket ticket) public payable onlyOwner {\n        uint256 commissionPercentage = 5;\n\n        uint256 managerFee = (msg.value * commissionPercentage) / 100;\n\n        require(msg.value >= managerFee, \"The amount is insufficient\");\n\n        Ticket(ticket).changePrice(msg.value);\n\n        payable(MANAGER).transfer(managerFee);\n        emit NewTicketPrice(msg.value);\n    }\n\n    //Funcin p/ retornar cantidad de tickets de la dApp y el precio total\n    function showStatistitcs()\n        public\n        view\n        returns (uint256 allTickets, uint256 totalFunds)\n    {\n        uint256 allT = totalTickets();\n        uint256 funds = address(this).balance;\n        return (allT, funds);\n    }\n\n    //Funcin p/ eliminar ticket de la lista\n    function deleteTicket(uint256 ticketIndex) public onlyOwner {\n        require(ticketIndex < ticketList.length, \"Index not found\");\n\n        for (uint256 i = ticketIndex; i < ticketList.length - 1; i++) {\n            ticketList[i] = ticketList[i + 1];\n        }\n        ticketList.pop();\n    }\n}\n",
  "sourcePath": "D:\\CODER Programacion\\2022\\Solidity\\trabajoFinal\\contracts\\Manager.sol",
  "compiler": {
    "name": "solc",
    "version": "0.8.17+commit.8df45f5f.Emscripten.clang"
  },
  "schemaVersion": "3.4.10",
  "updatedAt": "2022-11-29T14:47:41.085Z",
  "networkType": "ethereum",
  "devdoc": {
    "kind": "dev",
    "methods": {
      "owner()": {
        "details": "Returns the address of the current owner."
      },
      "renounceOwnership()": {
        "details": "Leaves the contract without owner. It will not be possible to call `onlyOwner` functions anymore. Can only be called by the current owner. NOTE: Renouncing ownership will leave the contract without an owner, thereby removing any functionality that is only available to the owner."
      },
      "transferOwnership(address)": {
        "details": "Transfers ownership of the contract to a new account (`newOwner`). Can only be called by the current owner."
      }
    },
    "version": 1
  },
  "userdoc": {
    "kind": "user",
    "methods": {},
    "version": 1
  }
}