{
  "contractName": "Manager",
  "abi": [
    {
      "inputs": [],
      "stateMutability": "nonpayable",
      "type": "constructor"
    },
    {
      "anonymous": false,
      "inputs": [
        {
          "indexed": false,
          "internalType": "uint256",
          "name": "amount",
          "type": "uint256"
        }
      ],
      "name": "FundsReceived",
      "type": "event"
    },
    {
      "anonymous": false,
      "inputs": [
        {
          "indexed": false,
          "internalType": "address",
          "name": "newOner",
          "type": "address"
        }
      ],
      "name": "NewOwner",
      "type": "event"
    },
    {
      "anonymous": false,
      "inputs": [
        {
          "indexed": false,
          "internalType": "string",
          "name": "eventName",
          "type": "string"
        },
        {
          "indexed": false,
          "internalType": "uint256",
          "name": "price",
          "type": "uint256"
        },
        {
          "indexed": false,
          "internalType": "address",
          "name": "owner",
          "type": "address"
        }
      ],
      "name": "NewTicket",
      "type": "event"
    },
    {
      "anonymous": false,
      "inputs": [
        {
          "indexed": false,
          "internalType": "uint256",
          "name": "newPrice",
          "type": "uint256"
        }
      ],
      "name": "NewTicketPrice",
      "type": "event"
    },
    {
      "anonymous": false,
      "inputs": [
        {
          "indexed": true,
          "internalType": "address",
          "name": "previousOwner",
          "type": "address"
        },
        {
          "indexed": true,
          "internalType": "address",
          "name": "newOwner",
          "type": "address"
        }
      ],
      "name": "OwnershipTransferred",
      "type": "event"
    },
    {
      "stateMutability": "payable",
      "type": "fallback",
      "payable": true
    },
    {
      "inputs": [],
      "name": "owner",
      "outputs": [
        {
          "internalType": "address",
          "name": "",
          "type": "address"
        }
      ],
      "stateMutability": "view",
      "type": "function",
      "constant": true
    },
    {
      "inputs": [],
      "name": "renounceOwnership",
      "outputs": [],
      "stateMutability": "nonpayable",
      "type": "function"
    },
    {
      "inputs": [],
      "name": "ticketCount",
      "outputs": [
        {
          "internalType": "uint256",
          "name": "",
          "type": "uint256"
        }
      ],
      "stateMutability": "view",
      "type": "function",
      "constant": true
    },
    {
      "inputs": [
        {
          "internalType": "address",
          "name": "newOwner",
          "type": "address"
        }
      ],
      "name": "transferOwnership",
      "outputs": [],
      "stateMutability": "nonpayable",
      "type": "function"
    },
    {
      "stateMutability": "payable",
      "type": "receive",
      "payable": true
    },
    {
      "inputs": [
        {
          "internalType": "string",
          "name": "_eventName",
          "type": "string"
        },
        {
          "internalType": "string",
          "name": "_eventDate",
          "type": "string"
        },
        {
          "internalType": "string",
          "name": "_eventDescription",
          "type": "string"
        },
        {
          "internalType": "enum EventType",
          "name": "_eventType",
          "type": "uint8"
        },
        {
          "internalType": "enum TicketStatus",
          "name": "_ticketStatus",
          "type": "uint8"
        },
        {
          "internalType": "enum TransferStatus",
          "name": "_transferStatus",
          "type": "uint8"
        },
        {
          "internalType": "uint256",
          "name": "_price",
          "type": "uint256"
        },
        {
          "internalType": "address",
          "name": "_owner",
          "type": "address"
        }
      ],
      "name": "createTicket",
      "outputs": [],
      "stateMutability": "payable",
      "type": "function",
      "payable": true
    },
    {
      "inputs": [],
      "name": "totalTickets",
      "outputs": [
        {
          "internalType": "uint256",
          "name": "total",
          "type": "uint256"
        }
      ],
      "stateMutability": "view",
      "type": "function",
      "constant": true
    },
    {
      "inputs": [
        {
          "internalType": "uint256",
          "name": "index",
          "type": "uint256"
        }
      ],
      "name": "showAllTickets",
      "outputs": [
        {
          "internalType": "uint256",
          "name": "ticketId",
          "type": "uint256"
        },
        {
          "internalType": "string",
          "name": "eventName",
          "type": "string"
        },
        {
          "internalType": "string",
          "name": "eventDate",
          "type": "string"
        },
        {
          "internalType": "string",
          "name": "eventDescription",
          "type": "string"
        },
        {
          "internalType": "enum EventType",
          "name": "eventType",
          "type": "uint8"
        },
        {
          "internalType": "enum TicketStatus",
          "name": "ticketStatus",
          "type": "uint8"
        },
        {
          "internalType": "uint256",
          "name": "ticketPrice",
          "type": "uint256"
        },
        {
          "internalType": "address",
          "name": "owner",
          "type": "address"
        }
      ],
      "stateMutability": "view",
      "type": "function",
      "constant": true
    },
    {
      "inputs": [
        {
          "internalType": "address",
          "name": "_ticketAddr",
          "type": "address"
        }
      ],
      "name": "showTicketsByAddress",
      "outputs": [
        {
          "internalType": "uint256",
          "name": "ticketId",
          "type": "uint256"
        },
        {
          "internalType": "string",
          "name": "eventName",
          "type": "string"
        },
        {
          "internalType": "string",
          "name": "eventDate",
          "type": "string"
        },
        {
          "internalType": "string",
          "name": "eventDescription",
          "type": "string"
        },
        {
          "internalType": "enum EventType",
          "name": "eventType",
          "type": "uint8"
        },
        {
          "internalType": "enum TicketStatus",
          "name": "ticketStatus",
          "type": "uint8"
        },
        {
          "internalType": "uint256",
          "name": "ticketPrice",
          "type": "uint256"
        },
        {
          "internalType": "address",
          "name": "owner",
          "type": "address"
        }
      ],
      "stateMutability": "view",
      "type": "function",
      "constant": true
    },
    {
      "inputs": [
        {
          "internalType": "contract Ticket",
          "name": "ticket",
          "type": "address"
        },
        {
          "internalType": "address",
          "name": "newAddress",
          "type": "address"
        }
      ],
      "name": "transferTicket",
      "outputs": [],
      "stateMutability": "payable",
      "type": "function",
      "payable": true
    },
    {
      "inputs": [
        {
          "internalType": "contract Ticket",
          "name": "ticket",
          "type": "address"
        }
      ],
      "name": "changeTicketPrice",
      "outputs": [],
      "stateMutability": "payable",
      "type": "function",
      "payable": true
    },
    {
      "inputs": [],
      "name": "showStatistitcs",
      "outputs": [
        {
          "internalType": "uint256",
          "name": "allTickets",
          "type": "uint256"
        },
        {
          "internalType": "uint256",
          "name": "totalFunds",
          "type": "uint256"
        }
      ],
      "stateMutability": "view",
      "type": "function",
      "constant": true
    },
    {
      "inputs": [
        {
          "internalType": "uint256",
          "name": "ticketIndex",
          "type": "uint256"
        }
      ],
      "name": "deleteTicket",
      "outputs": [],
      "stateMutability": "nonpayable",
      "type": "function"
    }
  ],
  "bytecode": "0x608060405234801561001057600080fd5b5061002d61002261003260201b60201c565b61003a60201b60201c565b6100fe565b600033905090565b60008060009054906101000a900473ffffffffffffffffffffffffffffffffffffffff169050816000806101000a81548173ffffffffffffffffffffffffffffffffffffffff021916908373ffffffffffffffffffffffffffffffffffffffff1602179055508173ffffffffffffffffffffffffffffffffffffffff168173ffffffffffffffffffffffffffffffffffffffff167f8be0079c531659141344cd1fd0a4f28419497f9722a3daafe3b4186f6b6457e060405160405180910390a35050565b6135f6806200010e6000396000f3fe608060405260043610620000bb5760003560e01c8063af0432db116200006d578063af0432db146200020f578063cfbd900f146200025a578063d0c451c0146200028a578063d1bc5e9514620002d5578063dd11247e1462000306578063f2fde38b146200033657620000fc565b806309208f291462000137578063411f93d114620001575780634ac6d23914620001775780635a93fb2d1462000197578063715018a614620001c55780638da5cb5b14620001df57620000fc565b36620000fc577fbcdc7071c1beb6dcf2744621e0b29a2f2432ee20812d9ca5e3d5e8f9308d93a334604051620000f2919062000f3e565b60405180910390a1005b7fbcdc7071c1beb6dcf2744621e0b29a2f2432ee20812d9ca5e3d5e8f9308d93a3346040516200012d919062000f3e565b60405180910390a1005b6200015560048036038101906200014f9190620011df565b62000364565b005b6200017560048036038101906200016f91906200134a565b620004f4565b005b6200019560048036038101906200018f919062001391565b6200089b565b005b348015620001a457600080fd5b50620001c36004803603810190620001bd9190620013c3565b620009be565b005b348015620001d257600080fd5b50620001dd62000b45565b005b348015620001ec57600080fd5b50620001f762000b5d565b60405162000206919062001406565b60405180910390f35b3480156200021c57600080fd5b506200023b6004803603810190620002359190620013c3565b62000b86565b604051620002519897969594939291906200157d565b60405180910390f35b3480156200026757600080fd5b506200027262000c66565b60405162000281919062000f3e565b60405180910390f35b3480156200029757600080fd5b50620002b66004803603810190620002b0919062001620565b62000c6c565b604051620002cc9897969594939291906200157d565b60405180910390f35b348015620002e257600080fd5b50620002ed62000d0b565b604051620002fd92919062001652565b60405180910390f35b3480156200031357600080fd5b506200031e62000d2d565b6040516200032d919062000f3e565b60405180910390f35b3480156200034357600080fd5b506200036260048036038101906200035c919062001620565b62000d3a565b005b600088888888888888886040516200037c9062000f15565b6200038f989796959493929190620016d0565b604051809103906000f080158015620003ac573d6000803e3d6000fd5b50905081600260008373ffffffffffffffffffffffffffffffffffffffff1673ffffffffffffffffffffffffffffffffffffffff16815260200190815260200160002060006101000a81548173ffffffffffffffffffffffffffffffffffffffff021916908373ffffffffffffffffffffffffffffffffffffffff1602179055506001819080600181540180825580915050600190039060005260206000200160009091909190916101000a81548173ffffffffffffffffffffffffffffffffffffffff021916908373ffffffffffffffffffffffffffffffffffffffff160217905550600160036000828254620004a59190620017a2565b925050819055507fe7ebec627bd4943c5000b1a3704ee12cbcf843f11090612e5609d3f52c5f9b7f898484604051620004e193929190620017dd565b60405180910390a1505050505050505050565b620004fe62000dc4565b60006001811115620005155762000514620014ac565b5b8273ffffffffffffffffffffffffffffffffffffffff16631a6fb3426040518163ffffffff1660e01b8152600401602060405180830381865afa15801562000561573d6000803e3d6000fd5b505050506040513d601f19601f8201168201806040525081019062000587919062001838565b60018111156200059c576200059b620014ac565b5b14620005df576040517f08c379a0000000000000000000000000000000000000000000000000000000008152600401620005d690620018ba565b60405180910390fd5b60006002811115620005f657620005f5620014ac565b5b8273ffffffffffffffffffffffffffffffffffffffff16633bc21fcb6040518163ffffffff1660e01b8152600401602060405180830381865afa15801562000642573d6000803e3d6000fd5b505050506040513d601f19601f82011682018060405250810190620006689190620018f3565b60028111156200067d576200067c620014ac565b5b14620006c0576040517f08c379a0000000000000000000000000000000000000000000000000000000008152600401620006b79062001975565b60405180910390fd5b6000600260008473ffffffffffffffffffffffffffffffffffffffff1673ffffffffffffffffffffffffffffffffffffffff16815260200190815260200160002060009054906101000a900473ffffffffffffffffffffffffffffffffffffffff16905060008173ffffffffffffffffffffffffffffffffffffffff16346040516200074c90620019cc565b60006040518083038185875af1925050503d80600081146200078b576040519150601f19603f3d011682016040523d82523d6000602084013e62000790565b606091505b505090506001151581151514620007de576040517f08c379a0000000000000000000000000000000000000000000000000000000008152600401620007d59062001a33565b60405180910390fd5b82600260008673ffffffffffffffffffffffffffffffffffffffff1673ffffffffffffffffffffffffffffffffffffffff16815260200190815260200160002060006101000a81548173ffffffffffffffffffffffffffffffffffffffff021916908373ffffffffffffffffffffffffffffffffffffffff1602179055507f3edd90e7770f06fafde38004653b33870066c33bfc923ff6102acd601f85dfbc836040516200088d919062001406565b60405180910390a150505050565b620008a562000dc4565b600060059050600060648234620008bd919062001a55565b620008c9919062001acf565b90508034101562000911576040517f08c379a0000000000000000000000000000000000000000000000000000000008152600401620009089062001b7d565b60405180910390fd5b8273ffffffffffffffffffffffffffffffffffffffff1663a2b40d19346040518263ffffffff1660e01b81526004016200094c919062000f3e565b600060405180830381600087803b1580156200096757600080fd5b505af11580156200097c573d6000803e3d6000fd5b505050507fcc22794783b5386583c8f5afc561c77f87a06f91f6fa4366b2fcca10a2b9be1d34604051620009b1919062000f3e565b60405180910390a1505050565b620009c862000dc4565b600180549050811062000a12576040517f08c379a000000000000000000000000000000000000000000000000000000000815260040162000a099062001bef565b60405180910390fd5b60008190505b6001808054905062000a2b919062001c11565b81101562000af7576001808262000a439190620017a2565b8154811062000a575762000a5662001c4c565b5b9060005260206000200160009054906101000a900473ffffffffffffffffffffffffffffffffffffffff166001828154811062000a995762000a9862001c4c565b5b9060005260206000200160006101000a81548173ffffffffffffffffffffffffffffffffffffffff021916908373ffffffffffffffffffffffffffffffffffffffff160217905550808062000aee9062001c7b565b91505062000a18565b50600180548062000b0d5762000b0c62001cc8565b5b6001900381819060005260206000200160006101000a81549073ffffffffffffffffffffffffffffffffffffffff0219169055905550565b62000b4f62000dc4565b62000b5b600062000e49565b565b60008060009054906101000a900473ffffffffffffffffffffffffffffffffffffffff16905090565b600060608060606000806000806001898154811062000baa5762000ba962001c4c565b5b9060005260206000200160009054906101000a900473ffffffffffffffffffffffffffffffffffffffff1673ffffffffffffffffffffffffffffffffffffffff1663f15358946040518163ffffffff1660e01b8152600401600060405180830381865afa15801562000c20573d6000803e3d6000fd5b505050506040513d6000823e3d601f19601f8201168201806040525081019062000c4b919062001dba565b97509750975097509750975097509750919395975091939597565b60035481565b600060608060606000806000808873ffffffffffffffffffffffffffffffffffffffff1663f15358946040518163ffffffff1660e01b8152600401600060405180830381865afa15801562000cc5573d6000803e3d6000fd5b505050506040513d6000823e3d601f19601f8201168201806040525081019062000cf0919062001dba565b97509750975097509750975097509750919395975091939597565b600080600062000d1a62000d2d565b9050600047905081819350935050509091565b6000600180549050905090565b62000d4462000dc4565b600073ffffffffffffffffffffffffffffffffffffffff168173ffffffffffffffffffffffffffffffffffffffff160362000db6576040517f08c379a000000000000000000000000000000000000000000000000000000000815260040162000dad9062001f56565b60405180910390fd5b62000dc18162000e49565b50565b62000dce62000f0d565b73ffffffffffffffffffffffffffffffffffffffff1662000dee62000b5d565b73ffffffffffffffffffffffffffffffffffffffff161462000e47576040517f08c379a000000000000000000000000000000000000000000000000000000000815260040162000e3e9062001fc8565b60405180910390fd5b565b60008060009054906101000a900473ffffffffffffffffffffffffffffffffffffffff169050816000806101000a81548173ffffffffffffffffffffffffffffffffffffffff021916908373ffffffffffffffffffffffffffffffffffffffff1602179055508173ffffffffffffffffffffffffffffffffffffffff168173ffffffffffffffffffffffffffffffffffffffff167f8be0079c531659141344cd1fd0a4f28419497f9722a3daafe3b4186f6b6457e060405160405180910390a35050565b600033905090565b6115d68062001feb83390190565b6000819050919050565b62000f388162000f23565b82525050565b600060208201905062000f55600083018462000f2d565b92915050565b6000604051905090565b600080fd5b600080fd5b600080fd5b600080fd5b6000601f19601f8301169050919050565b7f4e487b7100000000000000000000000000000000000000000000000000000000600052604160045260246000fd5b62000fc48262000f79565b810181811067ffffffffffffffff8211171562000fe65762000fe562000f8a565b5b80604052505050565b600062000ffb62000f5b565b905062001009828262000fb9565b919050565b600067ffffffffffffffff8211156200102c576200102b62000f8a565b5b620010378262000f79565b9050602081019050919050565b82818337600083830152505050565b60006200106a62001064846200100e565b62000fef565b90508281526020810184848401111562001089576200108862000f74565b5b6200109684828562001044565b509392505050565b600082601f830112620010b657620010b562000f6f565b5b8135620010c884826020860162001053565b91505092915050565b60038110620010df57600080fd5b50565b600081359050620010f381620010d1565b92915050565b600381106200110757600080fd5b50565b6000813590506200111b81620010f9565b92915050565b600281106200112f57600080fd5b50565b600081359050620011438162001121565b92915050565b620011548162000f23565b81146200116057600080fd5b50565b600081359050620011748162001149565b92915050565b600073ffffffffffffffffffffffffffffffffffffffff82169050919050565b6000620011a7826200117a565b9050919050565b620011b9816200119a565b8114620011c557600080fd5b50565b600081359050620011d981620011ae565b92915050565b600080600080600080600080610100898b03121562001203576200120262000f65565b5b600089013567ffffffffffffffff81111562001224576200122362000f6a565b5b620012328b828c016200109e565b985050602089013567ffffffffffffffff81111562001256576200125562000f6a565b5b620012648b828c016200109e565b975050604089013567ffffffffffffffff81111562001288576200128762000f6a565b5b620012968b828c016200109e565b9650506060620012a98b828c01620010e2565b9550506080620012bc8b828c016200110a565b94505060a0620012cf8b828c0162001132565b93505060c0620012e28b828c0162001163565b92505060e0620012f58b828c01620011c8565b9150509295985092959890939650565b600062001312826200119a565b9050919050565b620013248162001305565b81146200133057600080fd5b50565b600081359050620013448162001319565b92915050565b6000806040838503121562001364576200136362000f65565b5b6000620013748582860162001333565b92505060206200138785828601620011c8565b9150509250929050565b600060208284031215620013aa57620013a962000f65565b5b6000620013ba8482850162001333565b91505092915050565b600060208284031215620013dc57620013db62000f65565b5b6000620013ec8482850162001163565b91505092915050565b62001400816200119a565b82525050565b60006020820190506200141d6000830184620013f5565b92915050565b600081519050919050565b600082825260208201905092915050565b60005b838110156200145f57808201518184015260208101905062001442565b60008484015250505050565b6000620014788262001423565b6200148481856200142e565b9350620014968185602086016200143f565b620014a18162000f79565b840191505092915050565b7f4e487b7100000000000000000000000000000000000000000000000000000000600052602160045260246000fd5b60038110620014ef57620014ee620014ac565b5b50565b60008190506200150282620014db565b919050565b60006200151482620014f2565b9050919050565b620015268162001507565b82525050565b6003811062001540576200153f620014ac565b5b50565b600081905062001553826200152c565b919050565b6000620015658262001543565b9050919050565b620015778162001558565b82525050565b60006101008201905062001595600083018b62000f2d565b8181036020830152620015a9818a6200146b565b90508181036040830152620015bf81896200146b565b90508181036060830152620015d581886200146b565b9050620015e660808301876200151b565b620015f560a08301866200156c565b6200160460c083018562000f2d565b6200161360e0830184620013f5565b9998505050505050505050565b60006020828403121562001639576200163862000f65565b5b60006200164984828501620011c8565b91505092915050565b600060408201905062001669600083018562000f2d565b62001678602083018462000f2d565b9392505050565b60028110620016935762001692620014ac565b5b50565b6000819050620016a6826200167f565b919050565b6000620016b88262001696565b9050919050565b620016ca81620016ab565b82525050565b6000610100820190508181036000830152620016ed818b6200146b565b9050818103602083015262001703818a6200146b565b905081810360408301526200171981896200146b565b90506200172a60608301886200151b565b6200173960808301876200156c565b6200174860a0830186620016bf565b6200175760c083018562000f2d565b6200176660e0830184620013f5565b9998505050505050505050565b7f4e487b7100000000000000000000000000000000000000000000000000000000600052601160045260246000fd5b6000620017af8262000f23565b9150620017bc8362000f23565b9250828201905080821115620017d757620017d662001773565b5b92915050565b60006060820190508181036000830152620017f981866200146b565b90506200180a602083018562000f2d565b620018196040830184620013f5565b949350505050565b600081519050620018328162001121565b92915050565b60006020828403121562001851576200185062000f65565b5b6000620018618482850162001821565b91505092915050565b7f54686973207469636b65742069736e2774207472616e7366657269626c650000600082015250565b6000620018a2601e836200142e565b9150620018af826200186a565b602082019050919050565b60006020820190508181036000830152620018d58162001893565b9050919050565b600081519050620018ed81620010f9565b92915050565b6000602082840312156200190c576200190b62000f65565b5b60006200191c84828501620018dc565b91505092915050565b7f54686973207469636b65742069736e27742076616c6964000000000000000000600082015250565b60006200195d6017836200142e565b91506200196a8262001925565b602082019050919050565b6000602082019050818103600083015262001990816200194e565b9050919050565b600081905092915050565b50565b6000620019b460008362001997565b9150620019c182620019a2565b600082019050919050565b6000620019d982620019a5565b9150819050919050565b7f4572726f7220746f207472616e73666572207469636b65740000000000000000600082015250565b600062001a1b6018836200142e565b915062001a2882620019e3565b602082019050919050565b6000602082019050818103600083015262001a4e8162001a0c565b9050919050565b600062001a628262000f23565b915062001a6f8362000f23565b925082820262001a7f8162000f23565b9150828204841483151762001a995762001a9862001773565b5b5092915050565b7f4e487b7100000000000000000000000000000000000000000000000000000000600052601260045260246000fd5b600062001adc8262000f23565b915062001ae98362000f23565b92508262001afc5762001afb62001aa0565b5b828204905092915050565b7f54686520616d6f756e74207472616e7366657220697320696e7375666669636960008201527f656e740000000000000000000000000000000000000000000000000000000000602082015250565b600062001b656023836200142e565b915062001b728262001b07565b604082019050919050565b6000602082019050818103600083015262001b988162001b56565b9050919050565b7f496e646578206e6f7420666f756e640000000000000000000000000000000000600082015250565b600062001bd7600f836200142e565b915062001be48262001b9f565b602082019050919050565b6000602082019050818103600083015262001c0a8162001bc8565b9050919050565b600062001c1e8262000f23565b915062001c2b8362000f23565b925082820390508181111562001c465762001c4562001773565b5b92915050565b7f4e487b7100000000000000000000000000000000000000000000000000000000600052603260045260246000fd5b600062001c888262000f23565b91507fffffffffffffffffffffffffffffffffffffffffffffffffffffffffffffffff820362001cbd5762001cbc62001773565b5b600182019050919050565b7f4e487b7100000000000000000000000000000000000000000000000000000000600052603160045260246000fd5b60008151905062001d088162001149565b92915050565b600062001d2562001d1f846200100e565b62000fef565b90508281526020810184848401111562001d445762001d4362000f74565b5b62001d518482856200143f565b509392505050565b600082601f83011262001d715762001d7062000f6f565b5b815162001d8384826020860162001d0e565b91505092915050565b60008151905062001d9d81620010d1565b92915050565b60008151905062001db481620011ae565b92915050565b600080600080600080600080610100898b03121562001dde5762001ddd62000f65565b5b600062001dee8b828c0162001cf7565b985050602089015167ffffffffffffffff81111562001e125762001e1162000f6a565b5b62001e208b828c0162001d59565b975050604089015167ffffffffffffffff81111562001e445762001e4362000f6a565b5b62001e528b828c0162001d59565b965050606089015167ffffffffffffffff81111562001e765762001e7562000f6a565b5b62001e848b828c0162001d59565b955050608062001e978b828c0162001d8c565b94505060a062001eaa8b828c01620018dc565b93505060c062001ebd8b828c0162001cf7565b92505060e062001ed08b828c0162001da3565b9150509295985092959890939650565b7f4f776e61626c653a206e6577206f776e657220697320746865207a65726f206160008201527f6464726573730000000000000000000000000000000000000000000000000000602082015250565b600062001f3e6026836200142e565b915062001f4b8262001ee0565b604082019050919050565b6000602082019050818103600083015262001f718162001f2f565b9050919050565b7f4f776e61626c653a2063616c6c6572206973206e6f7420746865206f776e6572600082015250565b600062001fb06020836200142e565b915062001fbd8262001f78565b602082019050919050565b6000602082019050818103600083015262001fe38162001fa1565b905091905056fe60806040523480156200001157600080fd5b50604051620015d6380380620015d6833981810160405281019062000037919062000456565b620000476200016060201b60201c565b60008190555087600190816200005e9190620007bd565b508660029081620000709190620007bd565b508560039081620000829190620007bd565b5084600460006101000a81548160ff02191690836002811115620000ab57620000aa620008a4565b5b021790555083600460016101000a81548160ff02191690836002811115620000d857620000d7620008a4565b5b021790555082600460026101000a81548160ff02191690836001811115620001055762000104620008a4565b5b02179055508160058190555080600660006101000a81548173ffffffffffffffffffffffffffffffffffffffff021916908373ffffffffffffffffffffffffffffffffffffffff1602179055505050505050505050620009df565b6000806305f5e10033426040516020016200017d92919062000948565b6040516020818303038152906040528051906020012060001c620001a29190620009a7565b90508091505090565b6000604051905090565b600080fd5b600080fd5b600080fd5b600080fd5b6000601f19601f8301169050919050565b7f4e487b7100000000000000000000000000000000000000000000000000000000600052604160045260246000fd5b6200021482620001c9565b810181811067ffffffffffffffff82111715620002365762000235620001da565b5b80604052505050565b60006200024b620001ab565b905062000259828262000209565b919050565b600067ffffffffffffffff8211156200027c576200027b620001da565b5b6200028782620001c9565b9050602081019050919050565b60005b83811015620002b457808201518184015260208101905062000297565b60008484015250505050565b6000620002d7620002d1846200025e565b6200023f565b905082815260208101848484011115620002f657620002f5620001c4565b5b6200030384828562000294565b509392505050565b600082601f830112620003235762000322620001bf565b5b815162000335848260208601620002c0565b91505092915050565b600381106200034c57600080fd5b50565b60008151905062000360816200033e565b92915050565b600381106200037457600080fd5b50565b600081519050620003888162000366565b92915050565b600281106200039c57600080fd5b50565b600081519050620003b0816200038e565b92915050565b6000819050919050565b620003cb81620003b6565b8114620003d757600080fd5b50565b600081519050620003eb81620003c0565b92915050565b600073ffffffffffffffffffffffffffffffffffffffff82169050919050565b60006200041e82620003f1565b9050919050565b620004308162000411565b81146200043c57600080fd5b50565b600081519050620004508162000425565b92915050565b600080600080600080600080610100898b0312156200047a5762000479620001b5565b5b600089015167ffffffffffffffff8111156200049b576200049a620001ba565b5b620004a98b828c016200030b565b985050602089015167ffffffffffffffff811115620004cd57620004cc620001ba565b5b620004db8b828c016200030b565b975050604089015167ffffffffffffffff811115620004ff57620004fe620001ba565b5b6200050d8b828c016200030b565b9650506060620005208b828c016200034f565b9550506080620005338b828c0162000377565b94505060a0620005468b828c016200039f565b93505060c0620005598b828c01620003da565b92505060e06200056c8b828c016200043f565b9150509295985092959890939650565b600081519050919050565b7f4e487b7100000000000000000000000000000000000000000000000000000000600052602260045260246000fd5b60006002820490506001821680620005cf57607f821691505b602082108103620005e557620005e462000587565b5b50919050565b60008190508160005260206000209050919050565b60006020601f8301049050919050565b600082821b905092915050565b6000600883026200064f7fffffffffffffffffffffffffffffffffffffffffffffffffffffffffffffffff8262000610565b6200065b868362000610565b95508019841693508086168417925050509392505050565b6000819050919050565b60006200069e620006986200069284620003b6565b62000673565b620003b6565b9050919050565b6000819050919050565b620006ba836200067d565b620006d2620006c982620006a5565b8484546200061d565b825550505050565b600090565b620006e9620006da565b620006f6818484620006af565b505050565b5b818110156200071e5762000712600082620006df565b600181019050620006fc565b5050565b601f8211156200076d576200073781620005eb565b620007428462000600565b8101602085101562000752578190505b6200076a620007618562000600565b830182620006fb565b50505b505050565b600082821c905092915050565b6000620007926000198460080262000772565b1980831691505092915050565b6000620007ad83836200077f565b9150826002028217905092915050565b620007c8826200057c565b67ffffffffffffffff811115620007e457620007e3620001da565b5b620007f08254620005b6565b620007fd82828562000722565b600060209050601f83116001811462000835576000841562000820578287015190505b6200082c85826200079f565b8655506200089c565b601f1984166200084586620005eb565b60005b828110156200086f5784890151825560018201915060208501945060208101905062000848565b868310156200088f57848901516200088b601f8916826200077f565b8355505b6001600288020188555050505b505050505050565b7f4e487b7100000000000000000000000000000000000000000000000000000000600052602160045260246000fd5b60008160601b9050919050565b6000620008ed82620008d3565b9050919050565b60006200090182620008e0565b9050919050565b6200091d620009178262000411565b620008f4565b82525050565b6000819050919050565b620009426200093c82620003b6565b62000923565b82525050565b600062000956828562000908565b6014820191506200096882846200092d565b6020820191508190509392505050565b7f4e487b7100000000000000000000000000000000000000000000000000000000600052601260045260246000fd5b6000620009b482620003b6565b9150620009c183620003b6565b925082620009d457620009d362000978565b5b828206905092915050565b610be780620009ef6000396000f3fe608060405234801561001057600080fd5b50600436106100a95760003560e01c80639a3a857e116100715780639a3a857e146101305780639fad6d8d1461013a578063a2b40d1914610144578063b81e43fc14610160578063e697bc311461017e578063f153589414610188576100a9565b80631a6fb342146100ae5780633bc21fcb146100cc5780635de20d13146100ea578063660e16c3146100f4578063893d20e814610112575b600080fd5b6100b66101ad565b6040516100c391906106a8565b60405180910390f35b6100d46101c4565b6040516100e1919061070b565b60405180910390f35b6100f26101db565b005b6100fc61021c565b604051610109919061073f565b60405180910390f35b61011a610226565b604051610127919061079b565b60405180910390f35b610138610250565b005b610142610291565b005b61015e600480360381019061015991906107e7565b6102d2565b005b6101686102ea565b60405161017591906108a4565b60405180910390f35b61018661037c565b005b6101906103bd565b6040516101a498979695949392919061090e565b60405180910390f35b6000600460029054906101000a900460ff16905090565b6000600460019054906101000a900460ff16905090565b6101e560026105d7565b7f0502309765acdae9d02c67c5c7e531ccbab4cafcddfd84c575ff606185eb3625604051610212906109ed565b60405180910390a1565b6000600554905090565b6000600660009054906101000a900473ffffffffffffffffffffffffffffffffffffffff16905090565b61025a6001610604565b7f135c7db0397c6607deb77f9111f028cac1b773b9b6e4c9361f22ed1a6056f8e560405161028790610a59565b60405180910390a1565b61029b6000610604565b7f135c7db0397c6607deb77f9111f028cac1b773b9b6e4c9361f22ed1a6056f8e56040516102c890610ac5565b60405180910390a1565b60055481036102e057600080fd5b8060058190555050565b6060600180546102f990610b14565b80601f016020809104026020016040519081016040528092919081815260200182805461032590610b14565b80156103725780601f1061034757610100808354040283529160200191610372565b820191906000526020600020905b81548152906001019060200180831161035557829003601f168201915b5050505050905090565b61038660016105d7565b7f0502309765acdae9d02c67c5c7e531ccbab4cafcddfd84c575ff606185eb36256040516103b390610b91565b60405180910390a1565b60006060806060600080600080600054600160026003600460009054906101000a900460ff16600460019054906101000a900460ff16600554600660009054906101000a900473ffffffffffffffffffffffffffffffffffffffff1686805461042590610b14565b80601f016020809104026020016040519081016040528092919081815260200182805461045190610b14565b801561049e5780601f106104735761010080835404028352916020019161049e565b820191906000526020600020905b81548152906001019060200180831161048157829003601f168201915b505050505096508580546104b190610b14565b80601f01602080910402602001604051908101604052809291908181526020018280546104dd90610b14565b801561052a5780601f106104ff5761010080835404028352916020019161052a565b820191906000526020600020905b81548152906001019060200180831161050d57829003601f168201915b5050505050955084805461053d90610b14565b80601f016020809104026020016040519081016040528092919081815260200182805461056990610b14565b80156105b65780601f1061058b576101008083540402835291602001916105b6565b820191906000526020600020905b81548152906001019060200180831161059957829003601f168201915b50505050509450975097509750975097509750975097509091929394959697565b80600460016101000a81548160ff021916908360028111156105fc576105fb610631565b5b021790555050565b80600460026101000a81548160ff0219169083600181111561062957610628610631565b5b021790555050565b7f4e487b7100000000000000000000000000000000000000000000000000000000600052602160045260246000fd5b6002811061067157610670610631565b5b50565b600081905061068282610660565b919050565b600061069282610674565b9050919050565b6106a281610687565b82525050565b60006020820190506106bd6000830184610699565b92915050565b600381106106d4576106d3610631565b5b50565b60008190506106e5826106c3565b919050565b60006106f5826106d7565b9050919050565b610705816106ea565b82525050565b600060208201905061072060008301846106fc565b92915050565b6000819050919050565b61073981610726565b82525050565b60006020820190506107546000830184610730565b92915050565b600073ffffffffffffffffffffffffffffffffffffffff82169050919050565b60006107858261075a565b9050919050565b6107958161077a565b82525050565b60006020820190506107b0600083018461078c565b92915050565b600080fd5b6107c481610726565b81146107cf57600080fd5b50565b6000813590506107e1816107bb565b92915050565b6000602082840312156107fd576107fc6107b6565b5b600061080b848285016107d2565b91505092915050565b600081519050919050565b600082825260208201905092915050565b60005b8381101561084e578082015181840152602081019050610833565b60008484015250505050565b6000601f19601f8301169050919050565b600061087682610814565b610880818561081f565b9350610890818560208601610830565b6108998161085a565b840191505092915050565b600060208201905081810360008301526108be818461086b565b905092915050565b600381106108d7576108d6610631565b5b50565b60008190506108e8826108c6565b919050565b60006108f8826108da565b9050919050565b610908816108ed565b82525050565b600061010082019050610924600083018b610730565b8181036020830152610936818a61086b565b9050818103604083015261094a818961086b565b9050818103606083015261095e818861086b565b905061096d60808301876108ff565b61097a60a08301866106fc565b61098760c0830185610730565b61099460e083018461078c565b9998505050505050505050565b7f5469636b6574537461747573203d204558504952454400000000000000000000600082015250565b60006109d760168361081f565b91506109e2826109a1565b602082019050919050565b60006020820190508181036000830152610a06816109ca565b9050919050565b7f5472616e73666572537461747573203d204e4f5f5452414e5346455249424c45600082015250565b6000610a4360208361081f565b9150610a4e82610a0d565b602082019050919050565b60006020820190508181036000830152610a7281610a36565b9050919050565b7f5472616e73666572537461747573203d205452414e5346455249424c45000000600082015250565b6000610aaf601d8361081f565b9150610aba82610a79565b602082019050919050565b60006020820190508181036000830152610ade81610aa2565b9050919050565b7f4e487b7100000000000000000000000000000000000000000000000000000000600052602260045260246000fd5b60006002820490506001821680610b2c57607f821691505b602082108103610b3f57610b3e610ae5565b5b50919050565b7f5469636b6574537461747573203d205553454400000000000000000000000000600082015250565b6000610b7b60138361081f565b9150610b8682610b45565b602082019050919050565b60006020820190508181036000830152610baa81610b6e565b905091905056fea26469706673582212209969885d164506342e34c0b3a489b3e6657c6515eced96ab14f1c1d4ee60a69a64736f6c63430008110033a2646970667358221220ad726d0deaa5be6645700b1a6c2ae15adf201b2b7de08c541f5a6b1fefaee89464736f6c63430008110033",
  "immutableReferences": {},
  "source": "// SPDX-License-Identifier: MIT\npragma solidity ^0.8.7;\n\nimport \"@openzeppelin/contracts/access/Ownable.sol\";\nimport \"./Ticket.sol\";\n\ncontract Manager is Ownable {\n    Ticket[] private ticketList;\n    mapping(Ticket => address) Owners;\n\n    event FundsReceived(uint256 amount);\n    event NewOwner(address newOner);\n    event NewTicketPrice(uint256 newPrice);\n    event NewTicket(string eventName, uint256 price, address owner);\n\n    uint256 public ticketCount;\n\n    receive() external payable {\n        emit FundsReceived(msg.value);\n    }\n\n    fallback() external payable {\n        emit FundsReceived(msg.value);\n    }\n\n    constructor() {}\n\n    /*FUNCTION 1 => Tokenize a ticket\n    It takes the parameters defined by the constructor of Ticket.sol\n    */\n    function createTicket(\n        string memory _eventName,\n        string memory _eventDate,\n        string memory _eventDescription,\n        EventType _eventType,\n        TicketStatus _ticketStatus,\n        TransferStatus _transferStatus,\n        uint256 _price,\n        address _owner\n    ) public payable {\n        Ticket ticket = new Ticket(\n            _eventName,\n            _eventDate,\n            _eventDescription,\n            _eventType,\n            _ticketStatus,\n            _transferStatus,\n            _price,\n            _owner\n        );\n        Owners[ticket] = _owner;\n        ticketList.push(ticket);\n        ticketCount += 1;\n        emit NewTicket(_eventName, _price, _owner);\n    }\n\n    //Function to see all tickets in the dApp\n    function totalTickets() public view returns (uint256 total) {\n        return ticketList.length;\n    }\n\n    function showAllTickets(uint256 index)\n        public\n        view\n        returns (\n            //address ticketAddr,\n            uint256 ticketId,\n            string memory eventName,\n            string memory eventDate,\n            string memory eventDescription,\n            EventType eventType,\n            TicketStatus ticketStatus,\n            uint256 ticketPrice,\n            address owner\n        )\n    {\n        return Ticket(ticketList[index]).showInformation();\n    }\n\n    //Function to see the tickets assigned to an address\n    function showTicketsByAddress(address _ticketAddr)\n        public\n        view\n        returns (\n            uint256 ticketId,\n            string memory eventName,\n            string memory eventDate,\n            string memory eventDescription,\n            EventType eventType,\n            TicketStatus ticketStatus,\n            uint256 ticketPrice,\n            address owner\n        )\n    {\n        return Ticket(_ticketAddr).showInformation();\n    }\n\n    //Funcin p/ transferir un ticket (status Transferible)\n    function transferTicket(Ticket ticket, address newAddress)\n        public\n        payable\n        onlyOwner\n    {\n        require(\n            ticket.getTransferStatus() == TransferStatus.TRANSFERIBLE,\n            \"This ticket isn't transferible\"\n        );\n        require(\n            ticket.getTicketStatus() == TicketStatus.VALID,\n            \"This ticket isn't valid\"\n        );\n        address addressSent = Owners[ticket];\n        (bool sent, ) = addressSent.call{value: msg.value}(\"\");\n        require(sent == true, \"Error to transfer ticket\");\n        Owners[ticket] = newAddress;\n        emit NewOwner(newAddress);\n    }\n\n    //Funcin p/ que el dueo de un ticket le cambie el precio (5% comision)\n    function changeTicketPrice(Ticket ticket) public payable onlyOwner {\n        uint256 commissionPercentage = 5;\n        uint256 managerFee = (msg.value * commissionPercentage) / 100;\n        require(msg.value >= managerFee, \"The amount transfer is insufficient\");\n\n        Ticket(ticket).changePrice(msg.value);\n        emit NewTicketPrice(msg.value);\n    }\n\n    //Funcin p/ retornar cantidad de tickets de la dApp y el precio total\n    function showStatistitcs()\n        public\n        view\n        returns (uint256 allTickets, uint256 totalFunds)\n    {\n        uint256 allT = totalTickets();\n        uint256 funds = address(this).balance;\n        return (allT, funds);\n    }\n\n    //Funcin p/ eliminar ticket de la lista\n    function deleteTicket(uint256 ticketIndex) public onlyOwner {\n        require(ticketIndex < ticketList.length, \"Index not found\");\n\n        for (uint256 i = ticketIndex; i < ticketList.length - 1; i++) {\n            ticketList[i] = ticketList[i + 1];\n        }\n        ticketList.pop();\n    }\n}\n",
  "sourcePath": "D:\\CODER Programacion\\2022\\Solidity\\trabajoFinal\\contracts\\Manager.sol",
  "compiler": {
    "name": "solc",
    "version": "0.8.17+commit.8df45f5f.Emscripten.clang"
  },
  "schemaVersion": "3.4.10",
  "updatedAt": "2022-11-27T23:03:55.100Z",
  "networkType": "ethereum",
  "devdoc": {
    "kind": "dev",
    "methods": {
      "owner()": {
        "details": "Returns the address of the current owner."
      },
      "renounceOwnership()": {
        "details": "Leaves the contract without owner. It will not be possible to call `onlyOwner` functions anymore. Can only be called by the current owner. NOTE: Renouncing ownership will leave the contract without an owner, thereby removing any functionality that is only available to the owner."
      },
      "transferOwnership(address)": {
        "details": "Transfers ownership of the contract to a new account (`newOwner`). Can only be called by the current owner."
      }
    },
    "version": 1
  },
  "userdoc": {
    "kind": "user",
    "methods": {},
    "version": 1
  }
}