{
  "contractName": "Ticket",
  "abi": [
    {
      "inputs": [
        {
          "internalType": "string",
          "name": "_eventName",
          "type": "string"
        },
        {
          "internalType": "string",
          "name": "_eventDate",
          "type": "string"
        },
        {
          "internalType": "string",
          "name": "_eventDescription",
          "type": "string"
        },
        {
          "internalType": "enum EventType",
          "name": "_eventType",
          "type": "uint8"
        },
        {
          "internalType": "enum TicketStatus",
          "name": "_ticketStatus",
          "type": "uint8"
        },
        {
          "internalType": "enum TransferStatus",
          "name": "_transferStatus",
          "type": "uint8"
        },
        {
          "internalType": "uint256",
          "name": "_price",
          "type": "uint256"
        },
        {
          "internalType": "address",
          "name": "_owner",
          "type": "address"
        }
      ],
      "stateMutability": "nonpayable",
      "type": "constructor"
    },
    {
      "anonymous": false,
      "inputs": [
        {
          "indexed": false,
          "internalType": "string",
          "name": "",
          "type": "string"
        }
      ],
      "name": "newTicketStatus",
      "type": "event"
    },
    {
      "anonymous": false,
      "inputs": [
        {
          "indexed": false,
          "internalType": "string",
          "name": "",
          "type": "string"
        }
      ],
      "name": "newTransferStatus",
      "type": "event"
    },
    {
      "inputs": [],
      "name": "getMarketPrice",
      "outputs": [
        {
          "internalType": "uint256",
          "name": "",
          "type": "uint256"
        }
      ],
      "stateMutability": "view",
      "type": "function"
    },
    {
      "inputs": [],
      "name": "getOwner",
      "outputs": [
        {
          "internalType": "address",
          "name": "",
          "type": "address"
        }
      ],
      "stateMutability": "view",
      "type": "function"
    },
    {
      "inputs": [],
      "name": "getEventName",
      "outputs": [
        {
          "internalType": "string",
          "name": "",
          "type": "string"
        }
      ],
      "stateMutability": "view",
      "type": "function"
    },
    {
      "inputs": [],
      "name": "getTransferStatus",
      "outputs": [
        {
          "internalType": "enum TransferStatus",
          "name": "",
          "type": "uint8"
        }
      ],
      "stateMutability": "view",
      "type": "function"
    },
    {
      "inputs": [],
      "name": "getTicketStatus",
      "outputs": [
        {
          "internalType": "enum TicketStatus",
          "name": "",
          "type": "uint8"
        }
      ],
      "stateMutability": "view",
      "type": "function"
    },
    {
      "inputs": [
        {
          "internalType": "uint256",
          "name": "_newPrice",
          "type": "uint256"
        }
      ],
      "name": "changePrice",
      "outputs": [],
      "stateMutability": "nonpayable",
      "type": "function"
    },
    {
      "inputs": [],
      "name": "statusNoTransfe",
      "outputs": [],
      "stateMutability": "nonpayable",
      "type": "function"
    },
    {
      "inputs": [],
      "name": "statusTransfe",
      "outputs": [],
      "stateMutability": "nonpayable",
      "type": "function"
    },
    {
      "inputs": [],
      "name": "changeStatusUsed",
      "outputs": [],
      "stateMutability": "nonpayable",
      "type": "function"
    },
    {
      "inputs": [],
      "name": "changeStatusExpired",
      "outputs": [],
      "stateMutability": "nonpayable",
      "type": "function"
    },
    {
      "inputs": [
        {
          "internalType": "address",
          "name": "_newOwner",
          "type": "address"
        }
      ],
      "name": "changeOwner",
      "outputs": [],
      "stateMutability": "nonpayable",
      "type": "function"
    },
    {
      "inputs": [],
      "name": "showInformation",
      "outputs": [
        {
          "internalType": "address",
          "name": "_ticketAddr",
          "type": "address"
        },
        {
          "internalType": "uint256",
          "name": "_id",
          "type": "uint256"
        },
        {
          "internalType": "string",
          "name": "_eventName",
          "type": "string"
        },
        {
          "internalType": "string",
          "name": "_eventDate",
          "type": "string"
        },
        {
          "internalType": "string",
          "name": "_eventDescription",
          "type": "string"
        },
        {
          "internalType": "enum EventType",
          "name": "_eventType",
          "type": "uint8"
        },
        {
          "internalType": "enum TicketStatus",
          "name": "_status",
          "type": "uint8"
        },
        {
          "internalType": "uint256",
          "name": "_price",
          "type": "uint256"
        },
        {
          "internalType": "address",
          "name": "_ownerAddr",
          "type": "address"
        }
      ],
      "stateMutability": "view",
      "type": "function"
    }
  ],
  "bytecode": "0x60806040523480156200001157600080fd5b506040516200170938038062001709833981810160405281019062000037919062000456565b620000476200016060201b60201c565b60008190555087600190816200005e9190620007bd565b508660029081620000709190620007bd565b508560039081620000829190620007bd565b5084600460006101000a81548160ff02191690836002811115620000ab57620000aa620008a4565b5b021790555083600460016101000a81548160ff02191690836002811115620000d857620000d7620008a4565b5b021790555082600460026101000a81548160ff02191690836001811115620001055762000104620008a4565b5b02179055508160058190555080600660006101000a81548173ffffffffffffffffffffffffffffffffffffffff021916908373ffffffffffffffffffffffffffffffffffffffff1602179055505050505050505050620009df565b6000806305f5e10033426040516020016200017d92919062000948565b6040516020818303038152906040528051906020012060001c620001a29190620009a7565b90508091505090565b6000604051905090565b600080fd5b600080fd5b600080fd5b600080fd5b6000601f19601f8301169050919050565b7f4e487b7100000000000000000000000000000000000000000000000000000000600052604160045260246000fd5b6200021482620001c9565b810181811067ffffffffffffffff82111715620002365762000235620001da565b5b80604052505050565b60006200024b620001ab565b905062000259828262000209565b919050565b600067ffffffffffffffff8211156200027c576200027b620001da565b5b6200028782620001c9565b9050602081019050919050565b60005b83811015620002b457808201518184015260208101905062000297565b60008484015250505050565b6000620002d7620002d1846200025e565b6200023f565b905082815260208101848484011115620002f657620002f5620001c4565b5b6200030384828562000294565b509392505050565b600082601f830112620003235762000322620001bf565b5b815162000335848260208601620002c0565b91505092915050565b600381106200034c57600080fd5b50565b60008151905062000360816200033e565b92915050565b600381106200037457600080fd5b50565b600081519050620003888162000366565b92915050565b600281106200039c57600080fd5b50565b600081519050620003b0816200038e565b92915050565b6000819050919050565b620003cb81620003b6565b8114620003d757600080fd5b50565b600081519050620003eb81620003c0565b92915050565b600073ffffffffffffffffffffffffffffffffffffffff82169050919050565b60006200041e82620003f1565b9050919050565b620004308162000411565b81146200043c57600080fd5b50565b600081519050620004508162000425565b92915050565b600080600080600080600080610100898b0312156200047a5762000479620001b5565b5b600089015167ffffffffffffffff8111156200049b576200049a620001ba565b5b620004a98b828c016200030b565b985050602089015167ffffffffffffffff811115620004cd57620004cc620001ba565b5b620004db8b828c016200030b565b975050604089015167ffffffffffffffff811115620004ff57620004fe620001ba565b5b6200050d8b828c016200030b565b9650506060620005208b828c016200034f565b9550506080620005338b828c0162000377565b94505060a0620005468b828c016200039f565b93505060c0620005598b828c01620003da565b92505060e06200056c8b828c016200043f565b9150509295985092959890939650565b600081519050919050565b7f4e487b7100000000000000000000000000000000000000000000000000000000600052602260045260246000fd5b60006002820490506001821680620005cf57607f821691505b602082108103620005e557620005e462000587565b5b50919050565b60008190508160005260206000209050919050565b60006020601f8301049050919050565b600082821b905092915050565b6000600883026200064f7fffffffffffffffffffffffffffffffffffffffffffffffffffffffffffffffff8262000610565b6200065b868362000610565b95508019841693508086168417925050509392505050565b6000819050919050565b60006200069e620006986200069284620003b6565b62000673565b620003b6565b9050919050565b6000819050919050565b620006ba836200067d565b620006d2620006c982620006a5565b8484546200061d565b825550505050565b600090565b620006e9620006da565b620006f6818484620006af565b505050565b5b818110156200071e5762000712600082620006df565b600181019050620006fc565b5050565b601f8211156200076d576200073781620005eb565b620007428462000600565b8101602085101562000752578190505b6200076a620007618562000600565b830182620006fb565b50505b505050565b600082821c905092915050565b6000620007926000198460080262000772565b1980831691505092915050565b6000620007ad83836200077f565b9150826002028217905092915050565b620007c8826200057c565b67ffffffffffffffff811115620007e457620007e3620001da565b5b620007f08254620005b6565b620007fd82828562000722565b600060209050601f83116001811462000835576000841562000820578287015190505b6200082c85826200079f565b8655506200089c565b601f1984166200084586620005eb565b60005b828110156200086f5784890151825560018201915060208501945060208101905062000848565b868310156200088f57848901516200088b601f8916826200077f565b8355505b6001600288020188555050505b505050505050565b7f4e487b7100000000000000000000000000000000000000000000000000000000600052602160045260246000fd5b60008160601b9050919050565b6000620008ed82620008d3565b9050919050565b60006200090182620008e0565b9050919050565b6200091d620009178262000411565b620008f4565b82525050565b6000819050919050565b620009426200093c82620003b6565b62000923565b82525050565b600062000956828562000908565b6014820191506200096882846200092d565b6020820191508190509392505050565b7f4e487b7100000000000000000000000000000000000000000000000000000000600052601260045260246000fd5b6000620009b482620003b6565b9150620009c183620003b6565b925082620009d457620009d362000978565b5b828206905092915050565b610d1a80620009ef6000396000f3fe608060405234801561001057600080fd5b50600436106100b45760003560e01c80639fad6d8d116100715780639fad6d8d14610145578063a2b40d191461014f578063a6f9dae11461016b578063b81e43fc14610187578063e697bc31146101a5578063f1535894146101af576100b4565b80631a6fb342146100b95780633bc21fcb146100d75780635de20d13146100f5578063660e16c3146100ff578063893d20e81461011d5780639a3a857e1461013b575b600080fd5b6100c16101d5565b6040516100ce9190610773565b60405180910390f35b6100df6101ec565b6040516100ec91906107d6565b60405180910390f35b6100fd610203565b005b610107610244565b604051610114919061080a565b60405180910390f35b61012561024e565b6040516101329190610866565b60405180910390f35b610143610278565b005b61014d6102b9565b005b610169600480360381019061016491906108b2565b6102fa565b005b6101856004803603810190610180919061090b565b610312565b005b61018f6103b0565b60405161019c91906109c8565b60405180910390f35b6101ad610442565b005b6101b7610483565b6040516101cc99989796959493929190610a32565b60405180910390f35b6000600460029054906101000a900460ff16905090565b6000600460019054906101000a900460ff16905090565b61020d60026106a2565b7f0502309765acdae9d02c67c5c7e531ccbab4cafcddfd84c575ff606185eb362560405161023a90610b20565b60405180910390a1565b6000600554905090565b6000600660009054906101000a900473ffffffffffffffffffffffffffffffffffffffff16905090565b61028260016106cf565b7f135c7db0397c6607deb77f9111f028cac1b773b9b6e4c9361f22ed1a6056f8e56040516102af90610b8c565b60405180910390a1565b6102c360006106cf565b7f135c7db0397c6607deb77f9111f028cac1b773b9b6e4c9361f22ed1a6056f8e56040516102f090610bf8565b60405180910390a1565b600554810361030857600080fd5b8060058190555050565b600660009054906101000a900473ffffffffffffffffffffffffffffffffffffffff1673ffffffffffffffffffffffffffffffffffffffff168173ffffffffffffffffffffffffffffffffffffffff160361036c57600080fd5b80600660006101000a81548173ffffffffffffffffffffffffffffffffffffffff021916908373ffffffffffffffffffffffffffffffffffffffff16021790555050565b6060600180546103bf90610c47565b80601f01602080910402602001604051908101604052809291908181526020018280546103eb90610c47565b80156104385780601f1061040d57610100808354040283529160200191610438565b820191906000526020600020905b81548152906001019060200180831161041b57829003601f168201915b5050505050905090565b61044c60016106a2565b7f0502309765acdae9d02c67c5c7e531ccbab4cafcddfd84c575ff606185eb362560405161047990610cc4565b60405180910390a1565b600080606080606060008060008030600054600160026003600460009054906101000a900460ff16600460019054906101000a900460ff16600554600660009054906101000a900473ffffffffffffffffffffffffffffffffffffffff168680546104ed90610c47565b80601f016020809104026020016040519081016040528092919081815260200182805461051990610c47565b80156105665780601f1061053b57610100808354040283529160200191610566565b820191906000526020600020905b81548152906001019060200180831161054957829003601f168201915b5050505050965085805461057990610c47565b80601f01602080910402602001604051908101604052809291908181526020018280546105a590610c47565b80156105f25780601f106105c7576101008083540402835291602001916105f2565b820191906000526020600020905b8154815290600101906020018083116105d557829003601f168201915b5050505050955084805461060590610c47565b80601f016020809104026020016040519081016040528092919081815260200182805461063190610c47565b801561067e5780601f106106535761010080835404028352916020019161067e565b820191906000526020600020905b81548152906001019060200180831161066157829003601f168201915b50505050509450985098509850985098509850985098509850909192939495969798565b80600460016101000a81548160ff021916908360028111156106c7576106c66106fc565b5b021790555050565b80600460026101000a81548160ff021916908360018111156106f4576106f36106fc565b5b021790555050565b7f4e487b7100000000000000000000000000000000000000000000000000000000600052602160045260246000fd5b6002811061073c5761073b6106fc565b5b50565b600081905061074d8261072b565b919050565b600061075d8261073f565b9050919050565b61076d81610752565b82525050565b60006020820190506107886000830184610764565b92915050565b6003811061079f5761079e6106fc565b5b50565b60008190506107b08261078e565b919050565b60006107c0826107a2565b9050919050565b6107d0816107b5565b82525050565b60006020820190506107eb60008301846107c7565b92915050565b6000819050919050565b610804816107f1565b82525050565b600060208201905061081f60008301846107fb565b92915050565b600073ffffffffffffffffffffffffffffffffffffffff82169050919050565b600061085082610825565b9050919050565b61086081610845565b82525050565b600060208201905061087b6000830184610857565b92915050565b600080fd5b61088f816107f1565b811461089a57600080fd5b50565b6000813590506108ac81610886565b92915050565b6000602082840312156108c8576108c7610881565b5b60006108d68482850161089d565b91505092915050565b6108e881610845565b81146108f357600080fd5b50565b600081359050610905816108df565b92915050565b60006020828403121561092157610920610881565b5b600061092f848285016108f6565b91505092915050565b600081519050919050565b600082825260208201905092915050565b60005b83811015610972578082015181840152602081019050610957565b60008484015250505050565b6000601f19601f8301169050919050565b600061099a82610938565b6109a48185610943565b93506109b4818560208601610954565b6109bd8161097e565b840191505092915050565b600060208201905081810360008301526109e2818461098f565b905092915050565b600381106109fb576109fa6106fc565b5b50565b6000819050610a0c826109ea565b919050565b6000610a1c826109fe565b9050919050565b610a2c81610a11565b82525050565b600061012082019050610a48600083018c610857565b610a55602083018b6107fb565b8181036040830152610a67818a61098f565b90508181036060830152610a7b818961098f565b90508181036080830152610a8f818861098f565b9050610a9e60a0830187610a23565b610aab60c08301866107c7565b610ab860e08301856107fb565b610ac6610100830184610857565b9a9950505050505050505050565b7f5469636b6574537461747573203d204558504952454400000000000000000000600082015250565b6000610b0a601683610943565b9150610b1582610ad4565b602082019050919050565b60006020820190508181036000830152610b3981610afd565b9050919050565b7f5472616e73666572537461747573203d204e4f5f5452414e5346455249424c45600082015250565b6000610b76602083610943565b9150610b8182610b40565b602082019050919050565b60006020820190508181036000830152610ba581610b69565b9050919050565b7f5472616e73666572537461747573203d205452414e5346455249424c45000000600082015250565b6000610be2601d83610943565b9150610bed82610bac565b602082019050919050565b60006020820190508181036000830152610c1181610bd5565b9050919050565b7f4e487b7100000000000000000000000000000000000000000000000000000000600052602260045260246000fd5b60006002820490506001821680610c5f57607f821691505b602082108103610c7257610c71610c18565b5b50919050565b7f5469636b6574537461747573203d205553454400000000000000000000000000600082015250565b6000610cae601383610943565b9150610cb982610c78565b602082019050919050565b60006020820190508181036000830152610cdd81610ca1565b905091905056fea2646970667358221220732f6235b4b30411dbda1f2daaa44e38d17e938f1f834680d75d5584678e77c864736f6c63430008110033",
  "immutableReferences": {},
  "source": "// SPDX-License-Identifier: MIT\npragma solidity ^0.8.7;\n\nenum EventType {\n    SPORTS,\n    MUSIC,\n    CINEMA\n}\nenum TicketStatus {\n    VALID,\n    USED,\n    EXPIRED\n}\nenum TransferStatus {\n    TRANSFERIBLE,\n    NO_TRANSFERIBLE\n}\n\ncontract Ticket {\n    //Ticket characteristics\n    uint256 private id;\n    string private eventName;\n    string private eventDate;\n    string private eventDescription;\n    EventType private eventType;\n    TicketStatus private ticketStatus;\n    TransferStatus private transferStatus;\n    uint256 private price;\n    address private owner;\n\n    event newTransferStatus(string);\n    event newTicketStatus(string);\n\n    // receive() external payable {}\n\n    // fallback() external payable {}\n\n    constructor(\n        //It's a convention (not a requirement) to name function parameter variables with (_)\n        //to differentiate them from the global variables of the contract\n        string memory _eventName,\n        string memory _eventDate,\n        string memory _eventDescription,\n        EventType _eventType,\n        TicketStatus _ticketStatus,\n        TransferStatus _transferStatus,\n        uint256 _price,\n        address _owner\n    ) {\n        id = setId();\n        eventName = _eventName;\n        eventDate = _eventDate;\n        eventDescription = _eventDescription;\n        eventType = _eventType;\n        ticketStatus = _ticketStatus;\n        transferStatus = _transferStatus;\n        price = _price;\n        owner = _owner;\n    }\n\n    function getMarketPrice() external view returns (uint256) {\n        return price;\n    }\n\n    function getOwner() external view returns (address) {\n        return owner;\n    }\n\n    function getEventName() external view returns (string memory) {\n        return eventName;\n    }\n\n    function getTransferStatus() external view returns (TransferStatus) {\n        return transferStatus;\n    }\n\n    function getTicketStatus() external view returns (TicketStatus) {\n        return ticketStatus;\n    }\n\n    //FUNCTION 1 => changePrice()\n    function changePrice(uint256 _newPrice) external {\n        //Validate the _newPrice is another amount than price\n        require(_newPrice != price);\n        price = _newPrice;\n    }\n\n    //FUNCTION 2 => changeTransferStatus()\n    function setTransferStatus(TransferStatus newTranStatus) private {\n        transferStatus = newTranStatus;\n    }\n\n    //FUNCTION TO CHANGE STATE = Transferible/No_Transferible\n    function statusNoTransfe() public {\n        setTransferStatus(TransferStatus.NO_TRANSFERIBLE);\n        emit newTransferStatus(\"TransferStatus = NO_TRANSFERIBLE\");\n    }\n\n    function statusTransfe() public {\n        setTransferStatus(TransferStatus.TRANSFERIBLE);\n        emit newTransferStatus(\"TransferStatus = TRANSFERIBLE\");\n    }\n\n    /*FUNCTION 3 => changeStatus()\n     */\n    function setTicketStatus(TicketStatus newTickStatus) private {\n        ticketStatus = newTickStatus;\n    }\n\n    //Function to change the ticket status to USED\n    function changeStatusUsed() public {\n        setTicketStatus(TicketStatus.USED);\n        emit newTicketStatus(\"TicketStatus = USED\");\n    }\n\n    //Function to change the ticket status to EXPIRED\n    function changeStatusExpired() public {\n        setTicketStatus(TicketStatus.EXPIRED);\n        emit newTicketStatus(\"TicketStatus = EXPIRED\");\n    }\n\n    //FUNCTION 4 => changeOwner()\n    function changeOwner(address _newOwner) external {\n        //Validate the newOwner is other address than the owner\n        require(_newOwner != owner);\n        owner = _newOwner;\n    }\n\n    //FUNCTION 5 => create an ID for each ticket => setId()\n    function setId() private view returns (uint256) {\n        uint256 num = uint256(\n            keccak256(abi.encodePacked(msg.sender, block.timestamp))\n        ) % 100000000;\n        return num;\n    }\n\n    //FUNCTION 6 => return ticket information => showInformation()\n    function showInformation()\n        public\n        view\n        returns (\n            address _ticketAddr,\n            uint256 _id,\n            string memory _eventName,\n            string memory _eventDate,\n            string memory _eventDescription,\n            EventType _eventType,\n            TicketStatus _status,\n            uint256 _price,\n            address _ownerAddr\n        )\n    {\n        return (\n            address(this),\n            id,\n            eventName,\n            eventDate,\n            eventDescription,\n            eventType,\n            ticketStatus,\n            price,\n            owner\n        );\n    }\n}\n",
  "sourcePath": "D:\\CODER Programacion\\2022\\Solidity\\trabajoFinal\\contracts\\Ticket.sol",
  "compiler": {
    "name": "solc",
    "version": "0.8.17+commit.8df45f5f.Emscripten.clang"
  },
  "schemaVersion": "3.4.10",
  "updatedAt": "2022-11-29T14:47:00.864Z",
  "devdoc": {
    "kind": "dev",
    "methods": {},
    "version": 1
  },
  "userdoc": {
    "kind": "user",
    "methods": {},
    "version": 1
  }
}