{
  "contractName": "Ticket",
  "abi": [
    {
      "inputs": [
        {
          "internalType": "string",
          "name": "_eventName",
          "type": "string"
        },
        {
          "internalType": "string",
          "name": "_eventDate",
          "type": "string"
        },
        {
          "internalType": "string",
          "name": "_eventDescription",
          "type": "string"
        },
        {
          "internalType": "enum EventType",
          "name": "_eventType",
          "type": "uint8"
        },
        {
          "internalType": "enum TicketStatus",
          "name": "_ticketStatus",
          "type": "uint8"
        },
        {
          "internalType": "enum TransferStatus",
          "name": "_transferStatus",
          "type": "uint8"
        },
        {
          "internalType": "uint256",
          "name": "_price",
          "type": "uint256"
        },
        {
          "internalType": "address",
          "name": "_owner",
          "type": "address"
        }
      ],
      "stateMutability": "nonpayable",
      "type": "constructor"
    },
    {
      "anonymous": false,
      "inputs": [
        {
          "indexed": false,
          "internalType": "uint256",
          "name": "price",
          "type": "uint256"
        }
      ],
      "name": "ShowPrice",
      "type": "event"
    },
    {
      "anonymous": false,
      "inputs": [
        {
          "indexed": false,
          "internalType": "string",
          "name": "",
          "type": "string"
        }
      ],
      "name": "newTicketStatus",
      "type": "event"
    },
    {
      "anonymous": false,
      "inputs": [
        {
          "indexed": false,
          "internalType": "string",
          "name": "",
          "type": "string"
        }
      ],
      "name": "newTransferStatus",
      "type": "event"
    },
    {
      "inputs": [],
      "name": "getPrice",
      "outputs": [],
      "stateMutability": "nonpayable",
      "type": "function"
    },
    {
      "inputs": [],
      "name": "getMarketPrice",
      "outputs": [
        {
          "internalType": "uint256",
          "name": "",
          "type": "uint256"
        }
      ],
      "stateMutability": "view",
      "type": "function"
    },
    {
      "inputs": [],
      "name": "getOwner",
      "outputs": [
        {
          "internalType": "address",
          "name": "",
          "type": "address"
        }
      ],
      "stateMutability": "view",
      "type": "function"
    },
    {
      "inputs": [],
      "name": "getTicketId",
      "outputs": [
        {
          "internalType": "uint256",
          "name": "",
          "type": "uint256"
        }
      ],
      "stateMutability": "view",
      "type": "function"
    },
    {
      "inputs": [],
      "name": "getEventName",
      "outputs": [
        {
          "internalType": "string",
          "name": "",
          "type": "string"
        }
      ],
      "stateMutability": "view",
      "type": "function"
    },
    {
      "inputs": [],
      "name": "getTransferStatus",
      "outputs": [
        {
          "internalType": "enum TransferStatus",
          "name": "",
          "type": "uint8"
        }
      ],
      "stateMutability": "view",
      "type": "function"
    },
    {
      "inputs": [],
      "name": "getTicketStatus",
      "outputs": [
        {
          "internalType": "enum TicketStatus",
          "name": "",
          "type": "uint8"
        }
      ],
      "stateMutability": "view",
      "type": "function"
    },
    {
      "inputs": [
        {
          "internalType": "uint256",
          "name": "_newPrice",
          "type": "uint256"
        }
      ],
      "name": "changePrice",
      "outputs": [],
      "stateMutability": "nonpayable",
      "type": "function"
    },
    {
      "inputs": [],
      "name": "statusNoTransfe",
      "outputs": [],
      "stateMutability": "nonpayable",
      "type": "function"
    },
    {
      "inputs": [],
      "name": "statusTransfe",
      "outputs": [],
      "stateMutability": "nonpayable",
      "type": "function"
    },
    {
      "inputs": [],
      "name": "changeStatusUsed",
      "outputs": [],
      "stateMutability": "nonpayable",
      "type": "function"
    },
    {
      "inputs": [],
      "name": "changeStatusExpired",
      "outputs": [],
      "stateMutability": "nonpayable",
      "type": "function"
    },
    {
      "inputs": [
        {
          "internalType": "address",
          "name": "_newOwner",
          "type": "address"
        }
      ],
      "name": "changeOwner",
      "outputs": [],
      "stateMutability": "nonpayable",
      "type": "function"
    },
    {
      "inputs": [],
      "name": "showInformation",
      "outputs": [
        {
          "internalType": "address",
          "name": "_ticketAddr",
          "type": "address"
        },
        {
          "internalType": "uint256",
          "name": "_id",
          "type": "uint256"
        },
        {
          "internalType": "string",
          "name": "_eventName",
          "type": "string"
        },
        {
          "internalType": "string",
          "name": "_eventDate",
          "type": "string"
        },
        {
          "internalType": "string",
          "name": "_eventDescription",
          "type": "string"
        },
        {
          "internalType": "enum EventType",
          "name": "_eventType",
          "type": "uint8"
        },
        {
          "internalType": "enum TicketStatus",
          "name": "_status",
          "type": "uint8"
        },
        {
          "internalType": "uint256",
          "name": "_price",
          "type": "uint256"
        },
        {
          "internalType": "address",
          "name": "_ownerAddr",
          "type": "address"
        }
      ],
      "stateMutability": "view",
      "type": "function"
    }
  ],
  "bytecode": "0x60806040523480156200001157600080fd5b50604051620017ab380380620017ab833981810160405281019062000037919062000456565b620000476200016060201b60201c565b60008190555087600190816200005e9190620007bd565b508660029081620000709190620007bd565b508560039081620000829190620007bd565b5084600460006101000a81548160ff02191690836002811115620000ab57620000aa620008a4565b5b021790555083600460016101000a81548160ff02191690836002811115620000d857620000d7620008a4565b5b021790555082600460026101000a81548160ff02191690836001811115620001055762000104620008a4565b5b02179055508160058190555080600660006101000a81548173ffffffffffffffffffffffffffffffffffffffff021916908373ffffffffffffffffffffffffffffffffffffffff1602179055505050505050505050620009df565b6000806305f5e10033426040516020016200017d92919062000948565b6040516020818303038152906040528051906020012060001c620001a29190620009a7565b90508091505090565b6000604051905090565b600080fd5b600080fd5b600080fd5b600080fd5b6000601f19601f8301169050919050565b7f4e487b7100000000000000000000000000000000000000000000000000000000600052604160045260246000fd5b6200021482620001c9565b810181811067ffffffffffffffff82111715620002365762000235620001da565b5b80604052505050565b60006200024b620001ab565b905062000259828262000209565b919050565b600067ffffffffffffffff8211156200027c576200027b620001da565b5b6200028782620001c9565b9050602081019050919050565b60005b83811015620002b457808201518184015260208101905062000297565b60008484015250505050565b6000620002d7620002d1846200025e565b6200023f565b905082815260208101848484011115620002f657620002f5620001c4565b5b6200030384828562000294565b509392505050565b600082601f830112620003235762000322620001bf565b5b815162000335848260208601620002c0565b91505092915050565b600381106200034c57600080fd5b50565b60008151905062000360816200033e565b92915050565b600381106200037457600080fd5b50565b600081519050620003888162000366565b92915050565b600281106200039c57600080fd5b50565b600081519050620003b0816200038e565b92915050565b6000819050919050565b620003cb81620003b6565b8114620003d757600080fd5b50565b600081519050620003eb81620003c0565b92915050565b600073ffffffffffffffffffffffffffffffffffffffff82169050919050565b60006200041e82620003f1565b9050919050565b620004308162000411565b81146200043c57600080fd5b50565b600081519050620004508162000425565b92915050565b600080600080600080600080610100898b0312156200047a5762000479620001b5565b5b600089015167ffffffffffffffff8111156200049b576200049a620001ba565b5b620004a98b828c016200030b565b985050602089015167ffffffffffffffff811115620004cd57620004cc620001ba565b5b620004db8b828c016200030b565b975050604089015167ffffffffffffffff811115620004ff57620004fe620001ba565b5b6200050d8b828c016200030b565b9650506060620005208b828c016200034f565b9550506080620005338b828c0162000377565b94505060a0620005468b828c016200039f565b93505060c0620005598b828c01620003da565b92505060e06200056c8b828c016200043f565b9150509295985092959890939650565b600081519050919050565b7f4e487b7100000000000000000000000000000000000000000000000000000000600052602260045260246000fd5b60006002820490506001821680620005cf57607f821691505b602082108103620005e557620005e462000587565b5b50919050565b60008190508160005260206000209050919050565b60006020601f8301049050919050565b600082821b905092915050565b6000600883026200064f7fffffffffffffffffffffffffffffffffffffffffffffffffffffffffffffffff8262000610565b6200065b868362000610565b95508019841693508086168417925050509392505050565b6000819050919050565b60006200069e620006986200069284620003b6565b62000673565b620003b6565b9050919050565b6000819050919050565b620006ba836200067d565b620006d2620006c982620006a5565b8484546200061d565b825550505050565b600090565b620006e9620006da565b620006f6818484620006af565b505050565b5b818110156200071e5762000712600082620006df565b600181019050620006fc565b5050565b601f8211156200076d576200073781620005eb565b620007428462000600565b8101602085101562000752578190505b6200076a620007618562000600565b830182620006fb565b50505b505050565b600082821c905092915050565b6000620007926000198460080262000772565b1980831691505092915050565b6000620007ad83836200077f565b9150826002028217905092915050565b620007c8826200057c565b67ffffffffffffffff811115620007e457620007e3620001da565b5b620007f08254620005b6565b620007fd82828562000722565b600060209050601f83116001811462000835576000841562000820578287015190505b6200082c85826200079f565b8655506200089c565b601f1984166200084586620005eb565b60005b828110156200086f5784890151825560018201915060208501945060208101905062000848565b868310156200088f57848901516200088b601f8916826200077f565b8355505b6001600288020188555050505b505050505050565b7f4e487b7100000000000000000000000000000000000000000000000000000000600052602160045260246000fd5b60008160601b9050919050565b6000620008ed82620008d3565b9050919050565b60006200090182620008e0565b9050919050565b6200091d620009178262000411565b620008f4565b82525050565b6000819050919050565b620009426200093c82620003b6565b62000923565b82525050565b600062000956828562000908565b6014820191506200096882846200092d565b6020820191508190509392505050565b7f4e487b7100000000000000000000000000000000000000000000000000000000600052601260045260246000fd5b6000620009b482620003b6565b9150620009c183620003b6565b925082620009d457620009d362000978565b5b828206905092915050565b610dbc80620009ef6000396000f3fe608060405234801561001057600080fd5b50600436106100ea5760003560e01c80639a3a857e1161008c578063a6f9dae111610066578063a6f9dae1146101c9578063b81e43fc146101e5578063e697bc3114610203578063f15358941461020d576100ea565b80639a3a857e146101995780639fad6d8d146101a3578063a2b40d19146101ad576100ea565b80635de20d13116100c85780635de20d1314610149578063660e16c314610153578063893d20e81461017157806398d5fdca1461018f576100ea565b806303f053ca146100ef5780631a6fb3421461010d5780633bc21fcb1461012b575b600080fd5b6100f7610233565b60405161010491906107b7565b60405180910390f35b61011561023c565b6040516101229190610849565b60405180910390f35b610133610253565b60405161014091906108ac565b60405180910390f35b61015161026a565b005b61015b6102ab565b60405161016891906107b7565b60405180910390f35b6101796102b5565b6040516101869190610908565b60405180910390f35b6101976102df565b005b6101a161031a565b005b6101ab61035b565b005b6101c760048036038101906101c29190610954565b61039c565b005b6101e360048036038101906101de91906109ad565b6103b4565b005b6101ed610452565b6040516101fa9190610a6a565b60405180910390f35b61020b6104e4565b005b610215610525565b60405161022a99989796959493929190610ad4565b60405180910390f35b60008054905090565b6000600460029054906101000a900460ff16905090565b6000600460019054906101000a900460ff16905090565b6102746002610744565b7f0502309765acdae9d02c67c5c7e531ccbab4cafcddfd84c575ff606185eb36256040516102a190610bc2565b60405180910390a1565b6000600554905090565b6000600660009054906101000a900473ffffffffffffffffffffffffffffffffffffffff16905090565b7f5e7f09d6b0a80bb9ad87621a3616179bae6c1cd65f01332936516c18aa437c2460055460405161031091906107b7565b60405180910390a1565b6103246001610771565b7f135c7db0397c6607deb77f9111f028cac1b773b9b6e4c9361f22ed1a6056f8e560405161035190610c2e565b60405180910390a1565b6103656000610771565b7f135c7db0397c6607deb77f9111f028cac1b773b9b6e4c9361f22ed1a6056f8e560405161039290610c9a565b60405180910390a1565b60055481036103aa57600080fd5b8060058190555050565b600660009054906101000a900473ffffffffffffffffffffffffffffffffffffffff1673ffffffffffffffffffffffffffffffffffffffff168173ffffffffffffffffffffffffffffffffffffffff160361040e57600080fd5b80600660006101000a81548173ffffffffffffffffffffffffffffffffffffffff021916908373ffffffffffffffffffffffffffffffffffffffff16021790555050565b60606001805461046190610ce9565b80601f016020809104026020016040519081016040528092919081815260200182805461048d90610ce9565b80156104da5780601f106104af576101008083540402835291602001916104da565b820191906000526020600020905b8154815290600101906020018083116104bd57829003601f168201915b5050505050905090565b6104ee6001610744565b7f0502309765acdae9d02c67c5c7e531ccbab4cafcddfd84c575ff606185eb362560405161051b90610d66565b60405180910390a1565b600080606080606060008060008030600054600160026003600460009054906101000a900460ff16600460019054906101000a900460ff16600554600660009054906101000a900473ffffffffffffffffffffffffffffffffffffffff1686805461058f90610ce9565b80601f01602080910402602001604051908101604052809291908181526020018280546105bb90610ce9565b80156106085780601f106105dd57610100808354040283529160200191610608565b820191906000526020600020905b8154815290600101906020018083116105eb57829003601f168201915b5050505050965085805461061b90610ce9565b80601f016020809104026020016040519081016040528092919081815260200182805461064790610ce9565b80156106945780601f1061066957610100808354040283529160200191610694565b820191906000526020600020905b81548152906001019060200180831161067757829003601f168201915b505050505095508480546106a790610ce9565b80601f01602080910402602001604051908101604052809291908181526020018280546106d390610ce9565b80156107205780601f106106f557610100808354040283529160200191610720565b820191906000526020600020905b81548152906001019060200180831161070357829003601f168201915b50505050509450985098509850985098509850985098509850909192939495969798565b80600460016101000a81548160ff02191690836002811115610769576107686107d2565b5b021790555050565b80600460026101000a81548160ff02191690836001811115610796576107956107d2565b5b021790555050565b6000819050919050565b6107b18161079e565b82525050565b60006020820190506107cc60008301846107a8565b92915050565b7f4e487b7100000000000000000000000000000000000000000000000000000000600052602160045260246000fd5b60028110610812576108116107d2565b5b50565b600081905061082382610801565b919050565b600061083382610815565b9050919050565b61084381610828565b82525050565b600060208201905061085e600083018461083a565b92915050565b60038110610875576108746107d2565b5b50565b600081905061088682610864565b919050565b600061089682610878565b9050919050565b6108a68161088b565b82525050565b60006020820190506108c1600083018461089d565b92915050565b600073ffffffffffffffffffffffffffffffffffffffff82169050919050565b60006108f2826108c7565b9050919050565b610902816108e7565b82525050565b600060208201905061091d60008301846108f9565b92915050565b600080fd5b6109318161079e565b811461093c57600080fd5b50565b60008135905061094e81610928565b92915050565b60006020828403121561096a57610969610923565b5b60006109788482850161093f565b91505092915050565b61098a816108e7565b811461099557600080fd5b50565b6000813590506109a781610981565b92915050565b6000602082840312156109c3576109c2610923565b5b60006109d184828501610998565b91505092915050565b600081519050919050565b600082825260208201905092915050565b60005b83811015610a145780820151818401526020810190506109f9565b60008484015250505050565b6000601f19601f8301169050919050565b6000610a3c826109da565b610a4681856109e5565b9350610a568185602086016109f6565b610a5f81610a20565b840191505092915050565b60006020820190508181036000830152610a848184610a31565b905092915050565b60038110610a9d57610a9c6107d2565b5b50565b6000819050610aae82610a8c565b919050565b6000610abe82610aa0565b9050919050565b610ace81610ab3565b82525050565b600061012082019050610aea600083018c6108f9565b610af7602083018b6107a8565b8181036040830152610b09818a610a31565b90508181036060830152610b1d8189610a31565b90508181036080830152610b318188610a31565b9050610b4060a0830187610ac5565b610b4d60c083018661089d565b610b5a60e08301856107a8565b610b686101008301846108f9565b9a9950505050505050505050565b7f5469636b6574537461747573203d204558504952454400000000000000000000600082015250565b6000610bac6016836109e5565b9150610bb782610b76565b602082019050919050565b60006020820190508181036000830152610bdb81610b9f565b9050919050565b7f5472616e73666572537461747573203d204e4f5f5452414e5346455249424c45600082015250565b6000610c186020836109e5565b9150610c2382610be2565b602082019050919050565b60006020820190508181036000830152610c4781610c0b565b9050919050565b7f5472616e73666572537461747573203d205452414e5346455249424c45000000600082015250565b6000610c84601d836109e5565b9150610c8f82610c4e565b602082019050919050565b60006020820190508181036000830152610cb381610c77565b9050919050565b7f4e487b7100000000000000000000000000000000000000000000000000000000600052602260045260246000fd5b60006002820490506001821680610d0157607f821691505b602082108103610d1457610d13610cba565b5b50919050565b7f5469636b6574537461747573203d205553454400000000000000000000000000600082015250565b6000610d506013836109e5565b9150610d5b82610d1a565b602082019050919050565b60006020820190508181036000830152610d7f81610d43565b905091905056fea26469706673582212205d61f080c632db50a2fdc947955117eede9dcb69660cf5595d4250a59b70df4364736f6c63430008110033",
  "immutableReferences": {},
  "source": "// SPDX-License-Identifier: MIT\npragma solidity ^0.8.7;\n\nenum EventType {\n    SPORTS,\n    MUSIC,\n    CINEMA\n}\nenum TicketStatus {\n    VALID,\n    USED,\n    EXPIRED\n}\nenum TransferStatus {\n    TRANSFERIBLE,\n    NO_TRANSFERIBLE\n}\n\ncontract Ticket {\n    //Ticket characteristics\n    uint256 private id;\n    string private eventName;\n    string private eventDate;\n    string private eventDescription;\n    EventType private eventType;\n    TicketStatus private ticketStatus;\n    TransferStatus private transferStatus;\n    uint256 private price;\n    address private owner;\n\n    event newTransferStatus(string);\n    event newTicketStatus(string);\n    event ShowPrice(uint256 price);\n\n    constructor(\n        //It's a convention (not a requirement) to name function parameter variables with (_)\n        //to differentiate them from the global variables of the contract\n        string memory _eventName,\n        string memory _eventDate,\n        string memory _eventDescription,\n        EventType _eventType,\n        TicketStatus _ticketStatus,\n        TransferStatus _transferStatus,\n        uint256 _price,\n        address _owner\n    ) {\n        id = setId();\n        eventName = _eventName;\n        eventDate = _eventDate;\n        eventDescription = _eventDescription;\n        eventType = _eventType;\n        ticketStatus = _ticketStatus;\n        transferStatus = _transferStatus;\n        price = _price;\n        owner = _owner;\n    }\n\n    modifier isOwner() {\n        require(msg.sender == owner, \"\");\n        _;\n    }\n\n    function getPrice() public {\n        emit ShowPrice(price);\n    }\n\n    function getMarketPrice() external view returns (uint256) {\n        return price;\n    }\n\n    function getOwner() external view returns (address) {\n        return owner;\n    }\n\n    function getTicketId() external view returns (uint256) {\n        return id;\n    }\n\n    function getEventName() external view returns (string memory) {\n        return eventName;\n    }\n\n    function getTransferStatus() external view returns (TransferStatus) {\n        return transferStatus;\n    }\n\n    function getTicketStatus() external view returns (TicketStatus) {\n        return ticketStatus;\n    }\n\n    //FUNCTION 1 => changePrice()\n    function changePrice(uint256 _newPrice) external {\n        //Validate the _newPrice is another amount than price\n        require(_newPrice != price);\n        price = _newPrice;\n    }\n\n    //FUNCTION 2 => changeTransferStatus()\n    function setTransferStatus(TransferStatus newTranStatus) private {\n        transferStatus = newTranStatus;\n    }\n\n    //FUNCTION TO CHANGE STATE = Transferible/No_Transferible\n    function statusNoTransfe() public {\n        setTransferStatus(TransferStatus.NO_TRANSFERIBLE);\n        emit newTransferStatus(\"TransferStatus = NO_TRANSFERIBLE\");\n    }\n\n    function statusTransfe() public {\n        setTransferStatus(TransferStatus.TRANSFERIBLE);\n        emit newTransferStatus(\"TransferStatus = TRANSFERIBLE\");\n    }\n\n    /*FUNCTION 3 => changeStatus()\n     */\n    function setTicketStatus(TicketStatus newTickStatus) private {\n        ticketStatus = newTickStatus;\n    }\n\n    //Function to change the ticket status to USED\n    function changeStatusUsed() public {\n        setTicketStatus(TicketStatus.USED);\n        emit newTicketStatus(\"TicketStatus = USED\");\n    }\n\n    //Function to change the ticket status to EXPIRED\n    function changeStatusExpired() public {\n        setTicketStatus(TicketStatus.EXPIRED);\n        emit newTicketStatus(\"TicketStatus = EXPIRED\");\n    }\n\n    //FUNCTION 4 => changeOwner()\n    function changeOwner(address _newOwner) external {\n        //Validate the newOwner is other address than the owner\n        require(_newOwner != owner);\n        owner = _newOwner;\n    }\n\n    //FUNCTION 5 => create an ID for each ticket => setId()\n    function setId() private view returns (uint256) {\n        uint256 num = uint256(\n            keccak256(abi.encodePacked(msg.sender, block.timestamp))\n        ) % 100000000;\n        return num;\n    }\n\n    //FUNCTION 6 => return ticket information => showInformation()\n    function showInformation()\n        public\n        view\n        returns (\n            address _ticketAddr,\n            uint256 _id,\n            string memory _eventName,\n            string memory _eventDate,\n            string memory _eventDescription,\n            EventType _eventType,\n            TicketStatus _status,\n            uint256 _price,\n            address _ownerAddr\n        )\n    {\n        return (\n            address(this),\n            id,\n            eventName,\n            eventDate,\n            eventDescription,\n            eventType,\n            ticketStatus,\n            price,\n            owner\n        );\n    }\n}\n",
  "sourcePath": "D:\\CODER Programacion\\2022\\Solidity\\trabajoFinal\\contracts\\Ticket.sol",
  "compiler": {
    "name": "solc",
    "version": "0.8.17+commit.8df45f5f.Emscripten.clang"
  },
  "schemaVersion": "3.4.10",
  "updatedAt": "2022-12-05T23:00:43.548Z",
  "devdoc": {
    "kind": "dev",
    "methods": {},
    "version": 1
  },
  "userdoc": {
    "kind": "user",
    "methods": {},
    "version": 1
  }
}